:100000000C94E0000C94C9030C94A2030C943A05E0
:100010000C943A050C943A050C9408010C940801D0
:100020000C9408010C9408010C9408010C947904B8
:100030000C9408010C9408010C94EB080C94080132
:100040000C9458030C9408010C94C90B0C94A30B4A
:100050000C9408010C9408010C9408010C940801FC
:100060000C9408010C9408010000000024002700F3
:100070002A0000000008000201000003040700003D
:1000800000000000000000000000250028002B00F8
:1000900000000000230026002900040404040404D6
:1000A0000404020202020202030303030303010227
:1000B00004081020408001020408102001020408F6
:1000C000102000407A10F35A00A0724E1809001058
:1000D000A5D4E80000E87648170000E40B540200BD
:1000E00000CA9A3B000000E1F505000080969800E8
:1000F000000040420F000000A08601000000102711
:1001000000000000E80300000000640000000000A0
:100110000A00000000000100000000002C76D888D2
:10012000DC674F0823DFC1DFAE59E1B1B796E5E3E5
:10013000E453C63AE651997696E8E6C28426EB89FE
:100140008C9B62ED407C6FFCEFBC9C9F40F2BAA59B
:100150006FA5F490055A2AF75C936B6CF9676DC133
:100160001BFCE0E40D47FEF520E6B500D0ED902E37
:100170000300943577050080841E080000204E0A95
:10018000000000C80C333333330F986E12831141D3
:10019000EF8D2114893BE65516CFFEE6DB18D1849E
:1001A0004B381BF77C1D901DA4BBE42420328472C5
:1001B0005E228100C9F124ECA1E53D2739163511F5
:1001C00011241FBECFEFD8E0DEBFCDBF12E0A0E00C
:1001D000B1E0E8E4FEE302C005900D92AC3EB10749
:1001E000D9F724E0ACEEB2E001C01D92A83BB20703
:1001F000E1F710E0CFEDD0E004C02197FE010E94AE
:100200009717CE3DD107C9F70E9469110C94171FAB
:100210000C94000080E090E0892B29F00E94190BDB
:1002200081110C9400000895833081F028F481300E
:1002300099F08230A1F008958730A9F08830B9F0A4
:100240008430D1F4809180008F7D03C08091800044
:100250008F7780938000089584B58F7702C084B52E
:100260008F7D84BD08958091B0008F7703C0809109
:10027000B0008F7D8093B0000895CF93DF93282F37
:1002800030E0F901EE58FF4F8491F901E255FF4F3C
:10029000D491F901E656FF4FC491CC2391F081111E
:1002A0000E941401EC2FF0E0EE0FFF1FE057FF4F0C
:1002B000A591B491EC91ED2381E090E021F480E0F0
:1002C00002C080E090E0DF91CF9108953FB7F894AD
:1002D00080913D0390913E03A0913F03B091400374
:1002E00026B5A89B05C02F3F19F00196A11DB11D91
:1002F0003FBFBA2FA92F982F8827820F911DA11DCC
:10030000B11DBC01CD0142E0660F771F881F991F08
:100310004A95D1F7089508952091430330914403FD
:100320002817390771F4909141038091420398177F
:1003300041F0E0914103F0E0E950FD4F808190E011
:1003400008958FEF9FEF089508951F93CF93DF9344
:10035000DC015C962D913C915D972115310539F4B6
:1003600081E090E013969C938E9312973DC0519636
:10037000ED91FC91529750969C915097892F8095C2
:100380001FB75E964C915E9741FB772770F941FD50
:100390006095F8944081772311F0492B01C04823E0
:1003A0004083E9012197F1F748E0508160FF02C0E6
:1003B000592B01C058235083E9012197F1F7669525
:1003C000415099F7772321F090818923808303C0DE
:1003D0008081982B90831FBF5C968D919C915D9737
:1003E0000197F1F721E030E0C901DF91CF911F9132
:1003F000089520914303309144032817390771F47D
:10040000809142032091410390E0805C9F4F821BCA
:10041000910960E470E00E946F17089580E090E019
:100420000895209143033091440328173907B9F404
:100430009091410380914203981789F0E091410324
:10044000F0E0E950FD4F80812091410330E02F5FC3
:100450003F4F2F7333272093410390E008958FEF90
:100460009FEF08950E94781AFC01848DDF01A80F88
:10047000B11DA35ABF4F2C91848D90E001968F73CC
:100480009927848FA689B7892C93A089B1898C91EB
:1004900080648C93938D848D981306C00288F389B1
:1004A000E02D80818F7D808308951F93CF93DF930C
:1004B000282F30E0F901EE58FF4F8491F901E25501
:1004C000FF4FD491F901E656FF4FC491CC23C9F0F8
:1004D000162F81110E941401EC2FF0E0EE0FFF1F88
:1004E000EA57FF4FA591B4918FB7F894111105C049
:1004F0009C91ED2FE095E92302C0EC91ED2BEC935C
:100500008FBFDF91CF911F910895CF93DF93EC01BF
:1005100060E08E810E94550261E08E810E9455024A
:1005200060E08E810E9455028BE891E00197F1F71F
:10053000DF91CF910895CF93DF9390E0FC01E255D6
:10054000FF4F2491FC01E656FF4F8491882361F10F
:1005500090E0880F991FFC01E859FF4FC591D49195
:10056000FC01EA57FF4FA591B491611109C09FB7F3
:10057000F8948881209582238883EC912E230BC0E8
:10058000623061F49FB7F8943881822F809583237D
:100590008883EC912E2B2C939FBF06C08FB7F894C5
:1005A000E8812E2B28838FBFDF91CF9108958E3065
:1005B00008F08E508770806480937C0080917A0070
:1005C000806480937A0080917A0086FDFCCF8091D0
:1005D00078002091790090E0922B08958F929F925D
:1005E000AF92BF92CF92DF92EF92FF926B017C01AC
:1005F0000E9466014B015C01C114D104E104F104C5
:10060000F1F00E946601DC01CB0188199909AA0961
:10061000BB09883E9340A105B10570F321E0C21AE1
:10062000D108E108F10888EE880E83E0981EA11C2D
:10063000B11CC114D104E104F10419F7DDCFFF901E
:10064000EF90DF90CF90BF90AF909F908F900895E4
:100650001F93CF93DF931F92CDB7DEB7182F698317
:100660000E943D0121E06981892B09F420E02617D1
:1006700069F065E070E080E090E00E94EE02812F7A
:100680000E943D0161E0892B09F460E0862F0F9004
:10069000DF91CF911F9108952FB7F894609139039E
:1006A00070913A0380913B0390913C032FBF0895D2
:1006B0001F920F920FB60F9211242F933F938F9397
:1006C0009F93AF93BF938091390390913A03A09188
:1006D0003B03B0913C033091380323E0230F2D37C7
:1006E00020F40196A11DB11D05C026E8230F029636
:1006F000A11DB11D209338038093390390933A03D1
:10070000A0933B03B0933C0380913D0390913E0343
:10071000A0913F03B09140030196A11DB11D8093AC
:100720003D0390933E03A0933F03B0934003BF91DA
:10073000AF919F918F913F912F910F900FBE0F908E
:100740001F9018951F920F920FB60F9211242F939E
:100750003F934F935F936F937F938F939F93AF9349
:10076000BF93EF93FF93E0910201F091030109958C
:10077000FF91EF91BF91AF919F918F917F916F9179
:100780005F914F913F912F910F900FBE0F901F904F
:1007900018951F920F920FB60F9211242F933F932B
:1007A0004F935F936F937F938F939F93AF93BF9379
:1007B000EF93FF93E0910001F09101010995FF9102
:1007C000EF91BF91AF919F918F917F916F915F91C9
:1007D0004F913F912F910F900FBE0F901F90189542
:1007E000CF92DF92EF92FF920F931F93CF93DF93FD
:1007F0007C016C0187E0C80ED11CC0E0D0E0062F60
:1008000010E0B8010C2E02C0759567950A94E2F7C6
:100810006170F60181916F010E9455022196C430EA
:10082000D10579F7C701DF91CF911F910F91FF900B
:10083000EF90DF90CF900C948502CF92DF92EF92F1
:10084000FF920F931F93CF93DF93EC01F62E642F4B
:100850008C810E9455028D818F3F19F060E00E94CB
:1008600055028F850F2D10E084FF25C06E0187E0B3
:10087000C80ED11CE12CF12CB8010E2C02C07595CC
:1008800067950A94E2F76170F60181916F010E9409
:100890005502FFEFEF1AFF0A88E0E816F10461F74E
:1008A000CE01DF91CF911F910F91FF90EF90DF90DC
:1008B000CF900C948502B80184E0759567958A9570
:1008C000E1F7CE010E94F0036F2DCE01DF91CF91B1
:1008D0001F910F91FF90EF90DF90CF900C94F00359
:1008E00041E00E941D0481E090E0089540E00C94F6
:1008F0001D041F920F920FB60F9211242F933F9356
:100900004F935F936F937F938F939F93AF93BF9317
:10091000EF93FF938091370387FF05C01092850006
:10092000109284001BC020913703022E000C330B61
:1009300080914E0490E02817390784F480913703A2
:10094000082E000C990BFC01EE0FFF1F8E0F9F1F4E
:10095000FC01E65DFB4F808186FD15C08091370369
:100960008F5F8093370320913703022E000C330BE7
:1009700080914E0490E028173907C4F48091370322
:100980008C3064F113C080913703082E000C990B52
:10099000FC01EE0FFF1F8E0F9F1FFC01E65DFB4F5A
:1009A000808160E08F730E945502D8CF80918400CF
:1009B00090918500049680349C4918F480E49CE969
:1009C00005C08091840090918500049690938900E1
:1009D000809388008FEF809337033BC02091840081
:1009E0003091850080913703082E000C990BFC0193
:1009F000EE0FFF1F8E0F9F1FFC01E65DFB4F8181F5
:100A00009281820F931F9093890080938800809138
:100A10003703082E000C990BFC01EE0FFF1F8E0F01
:100A20009F1FFC01E65DFB4F808186FF12C0809115
:100A30003703082E000C990BFC01EE0FFF1F8E0FE1
:100A40009F1FFC01E65DFB4F808161E08F730E9478
:100A50005502FF91EF91BF91AF919F918F917F913F
:100A60006F915F914F913F912F910F900FBE0F901B
:100A70001F9018951F920F920FB60F9211242F936B
:100A80003F934F935F936F937F938F939F93AF9316
:100A9000BF93EF93FF93E0914303F09144033097AA
:100AA00009F451C0968DA685B785858591FF04C050
:100AB0009C91892329F447C09C91892309F043C064
:100AC000A389B4899C918589809589238C93868993
:100AD00097890197F1F7608D718DA685B78555854A
:100AE00038E020E0CB010197F1F7822F90E0959557
:100AF0008795282F4C91452309F02068315091F7B4
:100B0000868D81FD20958091420390E001968F7340
:100B1000992730914103381749F0A0914203B0E082
:100B2000A950BD4F2C938093420303C0868D8160F2
:100B3000868F828D938D0197F1F7A389B4899C915B
:100B40008589892B8C93FF91EF91BF91AF919F91F4
:100B50008F917F916F915F914F913F912F910F9066
:100B60000FBE0F901F90189561E08CE994E00E94F1
:100B700076048BE39FE10197F1F7E1E08091AF0408
:100B80008111E0E0E195F0E0E456FB4F6489606894
:100B90008CE994E00E9476044091660450916704C9
:100BA00060916204709163048CE994E00E94C00A31
:100BB000E091AF04E23010F4E15001C0E1E0F0E078
:100BC000E456FB4F648960688CE994E00E947604E7
:100BD000409160045091610460915C0470915D04E7
:100BE0008CE994E00C94C00A1F93CF93DF9300D05C
:100BF00000D000D0CDB7DEB71091F602612F83E0B0
:100C00000E9428038093F5021111F1C1882309F491
:100C1000EEC18091490390914A03009709F0B1C059
:100C200080914703909148038230910509F46DC08B
:100C300034F4009751F1019709F445C0D8C18330CD
:100C4000910509F491C0049709F0D1C110924803AD
:100C50001092470362E672E08CE594E00E940F1068
:100C60006091520370915303809154039091550306
:100C70000E94140E66E471E08CE594E00E94F90F86
:100C8000809107010E94EE0DB2C181E090E0909347
:100C90004803809347036FE471E08CE594E00E9481
:100CA0000F1080910601811103C060E471E002C061
:100CB0006AE371E08CE594E00E94F90F80914F03A4
:100CC000909150031DC082E090E090934803809380
:100CD000470364E571E08CE594E00E940F10809179
:100CE0000501811103C060E471E002C06AE371E0B4
:100CF0008CE594E00E94F90F80914D0390914E0392
:100D0000019779F568E471E022C083E090E0909368
:100D10004803809347036BE571E08CE594E00E9403
:100D20000F1080910401811103C060E471E002C0E2
:100D30006AE371E08CE594E00E94F90F80914B0327
:100D400090914C038130910539F46BE671E08CE5AC
:100D500094E00E94F90F4BC1029719F465E771E026
:100D6000F6CF6BE471E0F3CF84E090E0909348031A
:100D7000809347036FE474E08CE594E00E942610B2
:100D800036C18130910501F5809107018F5F809315
:100D900007018B3118F48091070101C08AE080932C
:100DA0000701609107014AE0CE0101960E94A71059
:100DB000BE016F5F7F4F8CE594E00E943D10CE0135
:100DC00001960E94761093C08230910521F58091A2
:100DD0000601882349F01092060181E090E090938B
:100DE000500380934F030EC080914F0390915003A6
:100DF000019729F41092500310924F0303C081E031
:100E00008093060180910601811159C080914F03A2
:100E10009091500326C08330910541F580910501E2
:100E2000882349F01092050181E090E090934E03F1
:100E300080934D030EC080914D0390914E03019716
:100E400029F410924E0310924D0303C081E0809369
:100E5000050180910501811132C080914D0390916F
:100E60004E030197F1F568E471E03DC084309105CF
:100E700009F041C080910401882329F010920401F7
:100E800081E090E009C080914B0390914C03813048
:100E9000910539F482E090E090934C0380934B03EA
:100EA0000AC0029729F410924C0310924B0303C01E
:100EB00081E08093040180910401882319F061E6A8
:100EC00071E011C080914B0390914C0381309105EA
:100ED00019F466E671E007C0029719F460E771E063
:100EE00002C06BE471E08CE594E00E940F1081E099
:100EF000809351037CC0059709F079C081E080930D
:100F00005B0480914503909146030097F9F480912A
:100F10005504909156049093F4028093F3028091CB
:100F2000F3029091F40201969093F4028093F302FD
:100F300048972CF48091F3029091F40202C080E073
:100F400090E09093F4028093F30220C00197F1F4B3
:100F500080915704909158049093F2028093F1028B
:100F60008091F1029091F20201969093F2028093A7
:100F7000F102CC972CF48091F1029091F20202C020
:100F800080E090E09093F2028093F1028091F3026E
:100F90009091F40290935604809355048091F1024D
:100FA0009091F2029093580480935704CE010196D9
:100FB0000E94E910BE016F5F7F4F8FE494E00E94B2
:100FC0003D10CE0101960E9476106FE474E08DE82A
:100FD00093E00E94161162E672E08CE594E00E94B4
:100FE0000F106FE474E08CE594E00E94081080918B
:100FF000F5028093F6020E94B40526960FB6F89487
:10100000DEBF0FBECDBFDF91CF911F910895CF936B
:10101000C091F6026C2F82E00E9428038093F502B3
:10102000C111D2C0882309F4CFC0809149039091A7
:101030004A0382309105D9F12CF4009769F00197A9
:10104000F1F0C2C08430910509F470C00CF448C0BE
:10105000059709F47EC0B8C081E090E090934A0300
:10106000809349036AE771E082E694E00E940F10E2
:1010700062E672E08CE594E00E940F10A1C082E06D
:1010800090E090934A038093490367E871E082E619
:1010900094E00E940F1080910601882319F061E608
:1010A00071E03FC080914F039091500314C083E0E2
:1010B00090E090934A038093490363E971E082E6EC
:1010C00094E00E940F10809105018111E8CF80917A
:1010D0004D0390914E03019711F568E471E021C032
:1010E00084E090E090934A038093490361EA71E0C1
:1010F00082E694E00E940F10809104018111CFCF0D
:1011000080914B0390914C038130910519F466E670
:1011100071E007C0029719F460E771E002C06BE468
:1011200071E08CE594E00E940F104EC085E090E0E5
:1011300090934A038093490360EB71E082E694E068
:101140000E940F106FE474E08CE594E00E9426107A
:101150003BC08091450390914603009739F481E0AC
:1011600090E090934603809345032EC0019761F56C
:1011700010924603109245031092480310924703C1
:1011800010924A03109249036DEB71E082E694E0FD
:101190000E940F1062E672E08CE594E00E940F104E
:1011A00060915203709153038091540390915503C1
:1011B0000E94140E66E471E08CE594E00E94F90F41
:1011C000809107010E94EE0D8091F5028093F60256
:1011D000CF910C94B4051F920F920FB60F92112469
:1011E0000F931F932F933F934F935F936F937F932F
:1011F0008F939F93AF93BF93EF93FF93CF93DF931F
:10120000CDB7DEB72697DEBFCDBF0E944C0300915D
:10121000ED021091EE022091EF023091F002DC011C
:10122000CB01801B910BA20BB30B893E9340A10510
:10123000B10508F478C08091EC028F5F8093EC02D6
:101240000E944C036093ED027093EE028093EF02D4
:101250009093F00280915B04882309F441C062E618
:1012600072E0CE0101960E94D410809159049091B1
:101270005A0401968C3391052CF490935A04809370
:1012800059040DC010925A041092590480915704C9
:10129000909158040196909358048093570480913C
:1012A000570490915804CC976CF010925804109207
:1012B00057048091550490915604019690935604DA
:1012C000809355048091550490915604489724F0DA
:1012D0001092560410925504CE0101960E94761089
:1012E000CE0101960E94E910BE016F5F7F4F8FE42F
:1012F00094E00E943D10CE0101960E9476108091EC
:10130000490390914A03892B61F48091470390919E
:101310004803049731F46FE474E08CE594E00E9494
:1013200026100E94B4058091EC02843008F457C066
:101330001092EC020E944C036093ED027093EE0257
:101340008093EF029093F00280E00E94D702BC01EC
:10135000990F880B990B0E94601D20E030E040E857
:101360005AE30E94BF1D20E030E44CE955E40E949E
:10137000BF1D20E030E040E251E40E940A18609373
:1013800052037093530380935403909355038091B9
:10139000490390914A03892B01F58091470390916D
:1013A0004803892BD1F462E672E08CE594E00E9458
:1013B0000F106091520370915303809154039091E8
:1013C00055030E94140E66E471E08CE594E00E94DF
:1013D000F90F809107010E94EE0D0E94B4058091E3
:1013E0000601882379F16091070170E080E090E0C8
:1013F0000E94601D9B01AC016091520370915303E8
:1014000080915403909155030E949D1720E030E095
:1014100040EA50E40E947C1818165CF461E08AE00F
:101420000E94550281E090E09093500380934F0317
:1014300015C060E08AE00E9455021092500310929D
:101440004F030CC080914F0390915003019711F40A
:1014500061E001C060E08AE00E94550280910501D0
:10146000882361F08091550490915604863091054F
:1014700009F457C00C9709F05FC053C080914D0329
:1014800090914E03019711F461E001C060E08BE0A0
:101490000E94550280910401882379F1609107012F
:1014A00070E080E090E00E94601D9B01AC016091C3
:1014B00052037091530380915403909155030E94FD
:1014C0009D1720E030E040EA50E40E947C18181696
:1014D0005CF48AE590E00E94570D81E090E09093E3
:1014E0004C0380934B0331C080E090E00E94570D85
:1014F00010924C0310924B0328C080914B039091A3
:101500004C038130910519F48AE590E007C00297F9
:1015100019F484EB90E002C080E090E00E94570D47
:1015200014C061E08BE00E94550281E090E090934E
:101530004E0380934D03AECF60E08BE00E945502D6
:1015400010924E0310924D03A5CF26960FB6F89435
:10155000DEBF0FBECDBFDF91CF91FF91EF91BF9165
:10156000AF919F918F917F916F915F914F913F913B
:101570002F911F910F910F900FBE0F901F901895F4
:10158000CF92DF92EF92FF920F931F93CF93DF934F
:101590006C017A018B01C0E0D0E0CE15DF0589F047
:1015A000D8016D918D01D601ED91FC910190F081F2
:1015B000E02DC6010995892B11F47E0102C0219608
:1015C000ECCFC701DF91CF911F910F91FF90EF906A
:1015D000DF90CF900895FC01918D828D981761F076
:1015E000828DDF01A80FB11D5D968C91928D9F5F5A
:1015F0009F73928F90E008958FEF9FEF0895FC0105
:10160000918D828D981731F0828DE80FF11D858DB7
:1016100090E008958FEF9FEF0895FC01918D228D4A
:10162000892F90E0805C9F4F821B91098F739927CF
:1016300008958DE893E00E940D0B21E0892B09F4B9
:1016400020E0822F0895EF92FF920F931F93CF9384
:10165000DF93EC0181E0888F9B8D8C8D981305C002
:10166000E889F989808185FD24C0F62E0B8D10E074
:101670000F5F1F4F0F731127E02E8C8DE8120CC0E7
:101680000FB607FCFACFE889F989808185FFF5CF8D
:10169000CE010E943402F1CF8B8DFE01E80FF11DC7
:1016A000E35AFF4FF0820B8FEA89FB8980818062C9
:1016B00007C0EE89FF896083E889F98980818064A9
:1016C000808381E090E0DF91CF911F910F91FF9097
:1016D000EF900895CF93DF93EC01888D8823C9F0B4
:1016E000EA89FB89808185FD05C0A889B9898C912B
:1016F00086FD0FC00FB607FCF5CF808185FFF2CFC6
:10170000A889B9898C9185FFEDCFCE010E94340262
:10171000E7CFDF91CF9108956115710579F0FB0155
:1017200001900020E9F73197AF01461B570BDC0110
:10173000ED91FC910280F381E02D099480E090E02E
:1017400008950C948C0B1F920F920FB60F921124D8
:101750002F933F934F935F936F937F938F939F93B9
:10176000AF93BF93EF93FF938DE893E00E94340211
:10177000FF91EF91BF91AF919F918F917F916F9169
:101780005F914F913F912F910F900FBE0F901F903F
:1017900018951F920F920FB60F9211242F938F93CB
:1017A0009F93EF93FF93E0919D03F0919E038081BF
:1017B000E091A303F091A40382FD12C09081809177
:1017C000A6038F5F8F732091A703821751F0E091DA
:1017D000A603F0E0E357FC4F958F8093A60301C06A
:1017E0008081FF91EF919F918F912F910F900FBE6C
:1017F0000F901F9018950895CF93DF93EC01888187
:101800009981009711F00E941619198218821D8281
:101810001C821B821A82DF91CF9108950F931F9330
:10182000CF93DF93EC0188819981009729F02A8179
:101830003B812617370788F48B016F5F7F4F0E942B
:10184000AE19009761F0998388831B830A832C81EA
:101850003D81232B11F4FC01108281E001C080E066
:10186000DF91CF911F910F910895EF92FF920F9307
:101870001F93CF93DF93FC0124813581611571059E
:1018800011F480E019C041155105A9F07B01EC016C
:101890008A01020F131FB8010E940E0C882389F3DE
:1018A000288139818C819D81B701820F931F0E940D
:1018B000861A1D830C8381E0DF91CF911F910F91D8
:1018C000FF90EF900895EF92FF920F931F93CF93A5
:1018D000DF93CDB7DEB728970FB6F894DEBF0FBE03
:1018E000CDBF7C01CB014AE08E010F5F1F4FB801D5
:1018F0000E94B81AF80101900020E9F73197AF0172
:10190000401B510BB801C7010E94350C28960FB639
:10191000F894DEBF0FBECDBFDF91CF911F910F9125
:10192000FF90EF900895EF92FF920F931F93CF9344
:10193000DF93EC017B018A01BA010E940E0C811138
:1019400004C0CE010E94FC0B07C01D830C83B701AD
:10195000888199810E94861ACE01DF91CF911F91D3
:101960000F91FF90EF900895EF92FF920F931F93C6
:10197000CF93DF93EC01623018F08F8588608F87FA
:101980006B8B1C8A80E48D8B80E18E8B80E58F8B46
:1019900061E08C810E949B028D818F3F19F061E094
:1019A0000E949B0261E08E810E949B027E0187E083
:1019B000E80EF11C00E010E08F8584FD03C084E098
:1019C00090E002C088E090E0081719074CF461E04D
:1019D000F70181917F010E949B020F5F1F4FECCFA7
:1019E0008BE39DE00197F1F760E08C810E94550246
:1019F00060E08E810E9455028D818F3F19F060E07A
:101A00000E9455026F8564FD1DC063E0CE010E94F7
:101A1000F0030BE416E4C8010197F1F763E0CE018F
:101A20000E94F003C8010197F1F763E0CE010E9424
:101A3000F00383E592E00197F1F762E0CE010E94A6
:101A4000F00316C06062CE010E9476048BE496E437
:101A50000197F1F76F856062CE010E94760483E5FD
:101A600092E00197F1F76F856062CE010E947604E3
:101A70006F856062CE010E94760484E0888B6CE002
:101A8000CE010E94760461E0CE010E9476048BE3D1
:101A90009FE10197F1F782E0898B66E0CE01DF914B
:101AA000CF911F910F91FF90EF900C947604CF92FD
:101AB000DF92EF92FF92DC01A03282E0B8070CF0D7
:101AC0003EC0B7FD06C0A53BB1052CF0A4EBB0E0CD
:101AD00002C0A0E0B0E080919A0428E830E06901FB
:101AE000C81AD10887FDD394CC0CDD1CCC0CDD1CAE
:101AF0000D2C000CEE08FF0880919B0428E532E0D5
:101B0000281B310987FD3395220F331F220F331F06
:101B1000A901330F660B770B9A01AB012C193D0914
:101B20004E095F090E94C91E24EB30E040E050E0FE
:101B30000E949F1EC20ED31EE41EF51ED601909178
:101B400099049C3098F580919A0448E850E0481B2D
:101B5000510987FD5395440F551F440F551FA41776
:101B6000B5078CF080919B0428E532E0281B3109F1
:101B700087FD3395220F331F220F331FAD012A1724
:101B80003B070CF4A90142505109440F551F2FB7D0
:101B9000F894892F90E0FC01EE0FFF1F8E0F9F1F1E
:101BA000FC01E65DFB4F528341832FBFFF90EF9016
:101BB000DF90CF900895CF93DF93BC018AE794E044
:101BC0000E948C0BEC0160E672E08AE794E00E94D0
:101BD0008C0B8C0F9D1FDF91CF9108950F931F9356
:101BE000CF93DF9300D000D0CDB7DEB74AE08E01AF
:101BF0000F5F1F4FB80190E00E94B81AF8010190E2
:101C00000020E9F73197AF01401B510BB8018CE57B
:101C100094E00E94350C0F900F900F900F90DF9181
:101C2000CF911F910F9108950F931F93CF93DF933F
:101C3000CDB7DEB764970FB6F894DEBF0FBECDBF49
:101C40008E010F5F1F4F22E044E00E948D1AFC01BD
:101C500001900020E9F73197AF01481B590BBC01F7
:101C60008CE594E00E94350C64960FB6F894DEBFC4
:101C70000FBECDBFDF91CF911F910F9108958F922D
:101C80009F92AF92BF92EF92FF920F931F93CF93C9
:101C9000DF93CDB7DEB7A1970FB6F894DEBF0FBEC6
:101CA000CDBF182F80915B03882309F470C0809109
:101CB000870390918803DC01ED91FC910480F5810C
:101CC000E02D0995892B99F309C02637310509F4D0
:101CD0005FC02835310511F410925B0380918703B2
:101CE00090918803DC01ED91FC910480F581E02D59
:101CF0000995181619060CF04AC080918703909137
:101D00008803DC01ED91FC910680F781E02D0995B7
:101D10009C01332723363105C1F66BED72E08091CB
:101D20008703909188030E94A10BE0908703F090B5
:101D30008803212F30E040E050E019A28E010F5DB2
:101D40001F4F8AE0882E912CA12CB12CCA01B90119
:101D5000A50194010E947D1E605DF80162938F01D0
:101D6000211531054105510589F7BF01C7010E94C1
:101D70008C0B62EE72E080918703909188030E9441
:101D8000A10B62E370E080E090E00E94EE0283E647
:101D9000A1960FB6F894DEBF0FBECDBFDF91CF91F5
:101DA0001F910F91FF90EF90BF90AF909F908F90F9
:101DB00008950F931F930E944C03009157031091B5
:101DC00058032091590330915A03DC01CB01801B49
:101DD000910BA20BB30B84369105A105B10538F424
:101DE00063E070E080E090E00E94EE02E4CF0E94A9
:101DF0004C03609357037093580380935903909357
:101E00005A031F910F9108956F927F928F929F9224
:101E1000AF92BF92CF92DF92EF92FF920F931F93F8
:101E2000CF93DF93EC0186E0869F5001879FB00C33
:101E30001124AC0EBD1EFE01EA15FB05B8F482812B
:101E40009381892B09F455C03696F6CFE0917A0438
:101E5000F0917B040680F781E02D8AE794E00995F4
:101E600097FD0FC0FE01EA15FB0558F10E944C03D7
:101E70006093820470938304809384049093850418
:101E8000E5CF0E944C0300918204109183042091BD
:101E9000840430918504DC01CB01801B910BA20BE3
:101EA000B30B00917E0410917F0420918004309147
:101EB000810480179107A207B30740F28FEF9FEFCD
:101EC0005DC06081718144815581DB01A40FB51F24
:101ED0002C91022E000C330B82179307C1F44F5F35
:101EE0005F4F55834483228133814217530709F0A2
:101EF00043C0EC1BFD0BF595E7952BEA3AEAE29F10
:101F0000C001E39F900DF29F900D112437C0411541
:101F1000510591F1E480F580970121503109358315
:101F20002483DB01A20FB31FAC910A2E000CBB0B64
:101F30008A179B07F9F421153105C9F06B018A0155
:101F4000021B130B060F171F612C712CD6018D90ED
:101F50006D01D8019D908D01891006C0BFEF6B1AED
:101F60007B0A6216730690F36216730699F6F58281
:101F7000E48202C0232B71F6369675CFDF91CF91A4
:101F80001F910F91FF90EF90DF90CF90BF90AF9097
:101F90009F908F907F906F900895CF93DF93EC0187
:101FA0006115710561F0FB0101900020E9F731979F
:101FB000AF01461B570B0E94350C811103C0CE01A7
:101FC0000E94FC0BCE01DF91CF910895CF93DF9358
:101FD000EC01FB0144815581608171810E94350CC7
:101FE000811103C0CE010E94FC0BCE01DF91CF9185
:101FF00008956115710551F0FB0101900020E9F78A
:102000003197AF01461B570B0C94350C80E00895B7
:10201000FB0144815581608171810C94350CCF9313
:10202000DF93EC016115710559F0FB01019000206F
:10203000E9F73197AF01461B570B0E94930C02C082
:102040000E94FC0BCE01DF91CF910895CF93DF93D7
:10205000EC01FB018617970761F0608171816115C2
:10206000710529F0448155810E94930C02C00E94A1
:10207000FC0BCE01DF91CF9108950F931F93CF9367
:10208000DF938C01EB01FC01808191810097B1F01D
:10209000688179816115710579F0428153812C81C4
:1020A0003D814217530740F00E94861A8C819D8122
:1020B000F8019583848313C00E9416198881998141
:1020C000F801918380838A819B81938382838C81B1
:1020D0009D8195838483198218821B821A821D82B6
:1020E0001C82DF91CF911F910F910895FC01808197
:1020F00091810C9416190F931F93CF93DF93CDB753
:10210000DEB762970FB6F894DEBF0FBECDBF8C016D
:10211000CB01F8011182108213821282158214827F
:1021200050E0BE016F5F7F4F0E94AD1ABE016F5F2E
:102130007F4FC8010E940F1062960FB6F894DEBF61
:102140000FBECDBFDF91CF911F910F9108950F93D7
:102150001F93CF93DF93CDB7DEB729970FB6F894CF
:10216000DEBF0FBECDBF8C01862FF8011182108219
:10217000138212821582148250E0BE016F5F7F4F7E
:1021800090E00E94C31ABE016F5F7F4FC8010E949A
:102190000F1029960FB6F894DEBF0FBECDBFDF91AA
:1021A000CF911F910F910895FC011182108213822B
:1021B0001282158214826115710551F0FB010190A4
:1021C0000020E9F73197AF01461B570B0C94930C95
:1021D00008950F931F93CF93DF93EC0162E672E0B3
:1021E0000E94D41005E514E0F80160817181CE01F0
:1021F0000E94630C6FE571E0CE010E94F90FF801B7
:1022000062817381CE010E94630C6FE571E0CE01A3
:102210000E94F90FF80164817581CE010E94630C60
:10222000CE01DF91CF911F910F9108950F931F93CE
:10223000CF93DF93EC01E881F981DB0114964D9196
:102240005C9115976D917C910280F381E02D099549
:102250008C0160E672E0CE010E948C0B800F911F12
:10226000DF91CF911F910F9108958FE494E00E9428
:1022700076108CE594E00E94761082E694E00E944D
:10228000761088E694E00E9476108EE694E00E9434
:10229000761084E794E00E94761086E291E09093B5
:1022A0007B0480937A0480914303909144038A577E
:1022B000944071F4E0918D04F0918E0490818091AE
:1022C0008F048095892380831092440310924303E6
:1022D0000895CF93DF93CDB7DEB7E9970FB6F894A3
:1022E000DEBF0FBECDBF789484B5826084BD84B557
:1022F000816084BD85B5826085BD85B5816085BD01
:1023000080916E00816080936E00109281008091B8
:102310008100826080938100809181008160809340
:102320008100809180008160809380008091B10065
:1023300084608093B1008091B00081608093B00090
:1023400080917A00846080937A0080917A00826024
:1023500080937A0080917A00816080937A008091E6
:102360007A00806880937A001092C10010928903ED
:1023700010928A0310928B0310928C0310925703D1
:10238000109258031092590310925A0360ED77E0AF
:1023900080E090E00E94EE028DE893E09093880345
:1023A00080938703E0919D03F0919E0382E08083F8
:1023B000E0919903F0919A031082E0919B03F091D0
:1023C0009C0380E180831092A503E091A103F0912A
:1023D000A20386E08083E0919F03F091A0038081B7
:1023E00080618083E0919F03F091A00380818860E9
:1023F0008083E0919F03F091A003808180688083B7
:10240000E0919F03F091A00380818F7D80830E94E3
:102410004C03C0905703D0905803E0905903F090BC
:102420005A03DC01CB018C199D09AE09BF09843622
:102430009105A105B10538F463E070E080E090E01B
:102440000E94EE02E4CF0E944C0360935703709306
:1024500058038093590390935A036AEC71E080917A
:102460008703909188030E94A10B6AE070E080E0EE
:1024700090E00E94EE0281E080935B03109295044D
:10248000109294041092930410929204109291046A
:10249000109290048FE190E09093970480939604BB
:1024A00090918604963108F057C021E030E03093D7
:1024B0009104209390042DE130E030939304209315
:1024C00092042DE030E03093950420939404209101
:1024D0006800983050F031E09E3008F430E081E040
:1024E00001C0880F3A95EAF701C084E0822B8093FF
:1024F0006800983038F09E3040F0963148F020E087
:1025000030E008C02DE630E005C02BE630E002C028
:102510002CE630E030938E0420938D04983030F414
:1025200081E001C0880F9A95EAF70EC0292F30E0AC
:102530009E3018F42850310902C02E50310981E034
:1025400001C0880F2A95EAF780938F048091960442
:10255000909197040197F1F78091940490919504DC
:10256000892B49F1E0914303F091440384E0EA3779
:10257000F80709F1309739F0A389B4899C918589CE
:10258000809589238C93809198048E7F8093980402
:1025900010924203109241038AE794E0909344031F
:1025A00080934303E0918D04F0918E04908180919B
:1025B0008F04892B808380E00E94D702BC01990F91
:1025C000880B990B0E94601D20E030E040E85AE340
:1025D0000E94BF1D20E030E44CE955E40E94BF1D7D
:1025E00020E030E040E251E40E940A186B017C01D7
:1025F0006093520370935303809354039093550355
:1026000010924A0310924903109248031092470314
:1026100010924603109245031092500310924F03FC
:1026200010924E0310924D0310924C0310924B03E4
:102630006DEB71E082E694E00E940F10C701B601D5
:102640000E94140E66E471E08CE594E00E94F90F9C
:10265000809107010E94EE0D8FEF87BD80916E0083
:10266000826080936E0062E08CE994E00E94B40C7A
:102670000E94B40561E08AE00E949B0261E08BE069
:102680000E949B02809199048C3008F051C061E057
:102690008CE00E949B0280919904E82FF0E09F015A
:1026A000220F331FE20FF31FE65DFB4F9081907CFA
:1026B0009C60908310929A0410929B046CE00E949C
:1026C00063179CE0899FB001112440E050E09A011B
:1026D000260F371FF901EE0FFF1F2E0F3F1FF901C5
:1026E000E65DFB4F908196FD16C04F5F5F4F4C300B
:1026F000510569F781110FC01092800082E080932C
:1027000081001092850010928400B19A80916F0030
:10271000826080936F00E0919904F0E0CF01880F10
:10272000991FE80FF91FE65DFB4F8081806480836D
:1027300060E082E00E949B0260E083E00E949B02D6
:1027400087E098E0909301018093000180916900F7
:102750008C7F816080936900E89A84EF95E0909384
:1027600003018093020180916900837F84608093DC
:102770006900E99A8CED91E00E94DB0D64EF71E055
:1027800080E090E00E94EE0288EE91E00E94DB0D76
:1027900064EF71E080E090E00E94EE0261EF71E092
:1027A000FE0131967F01CF010E94D41064E774E0EE
:1027B000C7010E94E60F65E172E00E94CD0F6EE650
:1027C00074E00E94E60F67E172E00E94CD0F1BA249
:1027D0001AA21DA21CA21FA21EA2BC01CE0182969B
:1027E0000E942610C7010E947610BE016E5D7F4FC9
:1027F0008AE794E00E94161168E57BE180E090E0B2
:102800000E94EE028CEF91E00E94DB0D64EF71E01C
:1028100080E090E00E94EE02CE0182960E94761047
:1028200086E0582E9FE6C92E92E0D92EAA24A394C2
:10283000B12C3AE8832E32E0932E47E0642E712CBF
:1028400065E072E0C7010E94D41068E674E0C70139
:102850000E94E60F69E172E00E94CD0FBC018AE799
:1028600094E00E941611C7010E94761068EE73E092
:1028700080E090E00E94EE02609107014AE0CE0104
:1028800082960E94A7106091520370915303809129
:1028900054039091550319A618A61BA61AA61DA6A7
:1028A0001CA6870122E044E00E948D1ABC01CE01E3
:1028B00088960E940F10609151034AE0CE018E96D7
:1028C0000E94A7101A8219821C821B821E821D82FE
:1028D000BE01625D7F4FC7010E9426106EE172E06B
:1028E000C7010E94CD0FBE01685D7F4F0E94E60FB9
:1028F0006EE172E00E94CD0FBE016E5D7F4F0E94BF
:10290000E60F1DAA1CAA1FAA1EAA19AE18AEBC016A
:10291000CE01C4960E942610C7010E947610CE01F7
:102920008E960E947610CE0188960E947610CE0177
:1029300082960E94761060914F03709150034AE096
:10294000C7010E947B106091060170E04AE0CE0151
:1029500082960E947B106EE172E0CE0188960E9402
:10296000D410BE016E5D7F4FCE0188960E94E60FA7
:102970006EE172E00E94CD0FB7010E94E60FBC012C
:10298000CE01C4960E940810CE0188960E9476104F
:10299000CE0182960E947610C7010E947610609147
:1029A0004D0370914E034AE0C7010E947B10609175
:1029B000050170E04AE0CE0182960E947B106EE134
:1029C00072E0CE0188960E94D410BE016E5D7F4FEA
:1029D000CE0188960E94E60F6EE172E00E94CD0F54
:1029E000B7010E94E60FBC01CE01C4960E940810F8
:1029F000CE0188960E947610CE0182960E947610B3
:102A0000C7010E94761060914B0370914C034AE01D
:102A1000C7010E947B106091040170E04AE0CE0182
:102A200082960E947B106EE172E0CE0188960E9431
:102A3000D410BE016E5D7F4FCE0188960E94E60FD6
:102A40006EE172E00E94CD0FB7010E94E60FBC015B
:102A5000CE01C4960E940810CE0188960E9476107E
:102A6000CE0182960E947610C7010E94761061E224
:102A700072E0C7010E94D410BE016C5C7F4FC70199
:102A80000E94E60F62E372E00E94CD0F1FA61EA611
:102A900019AA18AA1BAA1AAABC01CE018E960E94D6
:102AA0002610C7010E94761063E672E0CE01889678
:102AB0000E94D4108AA99BA91BA21AA21DA21CA223
:102AC0001FA21EA24AE0B7010E94CE1AB701CE0192
:102AD00082960E940F10BE016E5D7F4FCE018896D8
:102AE0000E940810CE0182960E947610BE01685D99
:102AF0007F4F8AE794E00E94161168EE73E080E051
:102B000090E00E94EE02F701852D11928A95E9F777
:102B1000DA82C982BC82AB8261E070E0C7010E94A8
:102B2000040F892B31F468EE73E080E090E00E949E
:102B3000EE02BE01625D7F4F8AE794E00E941611AB
:102B40000E94D90E61E772E080918703909188031B
:102B50000E94A10B69E772E080918703909188033E
:102B60000E94A10B65E070E080E090E00E94EE0220
:102B70006AE070E080E090E00E94EE0282E00E9455
:102B80003F0E68EE73E080E090E00E94EE020E944B
:102B9000D90E62E872E080918703909188030E94C9
:102BA000A10B69E772E080918703909188030E94EE
:102BB000A10B65E070E080E090E00E94EE026AE028
:102BC00070E080E090E00E94EE0283E00E943F0E01
:102BD0008AE794E00E94F901892B91F1F701852D94
:102BE00011928A95E9F79A8289827C826B8261E0F0
:102BF00070E0C7010E94040F892B51F71092510316
:102C00000E94D90E62E972E0809187039091880357
:102C10000E94A10B69E772E080918703909188037D
:102C20000E94A10B65E070E080E090E00E94EE025F
:102C30006AE070E080E090E00E94EE0281E0C6CFA2
:102C40008AE992E00E94DB0DCE0188960E94761000
:102C5000CE018E960E947610CE01C4960E94761008
:102C600068E873E180E090E00E94EE020E940A01B1
:102C7000E7CDCF931092900310928F0388EE93E0EC
:102C8000A0E0B0E08093910390939203A09393030C
:102C9000B093940386E191E090938E0380938D032B
:102CA00085EC90E090939A038093990384EC90E0F4
:102CB00090939C0380939B0380EC90E090939E0301
:102CC00080939D0381EC90E09093A00380939F03F9
:102CD00082EC90E09093A2038093A10386EC90E0B5
:102CE0009093A4038093A3031092A6031092A703CA
:102CF0001092A8031092A90310929F0410929E04B0
:102D000086E391E090939D0480939C0484E08093FB
:102D1000A004CFEFC093A10485E08093A20486E0D5
:102D20008093A30487E08093A40488E08093A504A3
:102D300089E08093A6041092A7041092A804109230
:102D4000A9041092AA041092AB0461E08CE994E00B
:102D50000E94B40C80914E048C30A0F491E0980F46
:102D600090934E048093990490E0FC01EE0FFF1FB6
:102D70008E0F9F1FFC01E65DFB4F88EB9BE092836B
:102D8000818302C0C093990410927D0410927C0448
:102D900088EE93E0A0E0B0E080937E0490937F04FF
:102DA000A0938004B093810486E291E090937B0429
:102DB00080937A04109291041092900410929304DC
:102DC0001092920410929504109294041092970419
:102DD00010929604609198046E7F6D7F60939804C2
:102DE0006695617081E0682780E00E94550261E08D
:102DF00080E00E949B02EEEAF0E0E491E0938A0416
:102E0000EAE9F0E0E491F0E0EE0FFF1FEA57FF4F30
:102E10008591949190938C0480938B0460E081E081
:102E20000E949B028091980481FD04C061E081E0D2
:102E30000E94550281E080938604EFEAF0E0E4917D
:102E4000E0938704EBE9F0E0E491F0E0EE0FFF1F80
:102E5000E057FF4F85919491909389048093880463
:102E600066EA72E084E794E00E94D41063EB72E0BB
:102E70008EE694E00E94D4106EEB72E088E694E057
:102E80000E94D41062E672E082E694E00E94D410C0
:102E900062E672E08CE594E00E94D4101092560431
:102EA00010925504109258041092570410925A042C
:102EB0001092590410925B0462E672E08FE494E091
:102EC000CF910C94D410991B79E004C0991F9617E8
:102ED00008F0961B881F7A95C9F78095089597FB8F
:102EE000072E16F4009407D077FD09D00E948317AF
:102EF00007FC05D03EF4909581959F4F08957095FD
:102F000061957F4F0895AA1BBB1B51E107C0AA1F03
:102F1000BB1FA617B70710F0A61BB70B881F991F7A
:102F20005A95A9F780959095BC01CD010895EE0FB3
:102F3000FF1F0590F491E02D09945058BB27AA2754
:102F40000E94B5170C94431E0E94351E38F00E9453
:102F50003C1E20F039F49F3F19F426F40C94321EE5
:102F60000EF4E095E7FB0C942C1EE92F0E94541EF2
:102F700058F3BA17620773078407950720F079F4AE
:102F8000A6F50C94761E0EF4E0950B2EBA2FA02D0C
:102F90000B01B90190010C01CA01A0011124FF2706
:102FA000591B99F0593F50F4503E68F11A16F04001
:102FB000A22F232F342F4427585FF3CF4695379500
:102FC0002795A795F0405395C9F77EF41F16BA0BC5
:102FD000620B730B840BBAF09150A1F0FF0FBB1F73
:102FE000661F771F881FC2F70EC0BA0F621F731FBC
:102FF000841F48F4879577956795B795F7959E3F19
:1030000008F0B0CF9395880F08F09927EE0F9795A9
:10301000879508950E941E180C94431E0E943C1E22
:1030200058F00E94351E40F029F45F3F29F00C94BF
:103030002C1E51110C94771E0C94321E0E94541EAB
:1030400068F39923B1F3552391F3951B550BBB27D7
:10305000AA2762177307840738F09F5F5F4F220F1C
:10306000331F441FAA1FA9F335D00E2E3AF0E0E813
:1030700032D091505040E695001CCAF72BD0FE2F5D
:1030800029D0660F771F881FBB1F261737074807F1
:10309000AB07B0E809F0BB0B802DBF01FF279358A9
:1030A0005F4F3AF09E3F510578F00C942C1E0C9423
:1030B000771E5F3FE4F3983ED4F386957795679546
:1030C000B795F7959F5FC9F7880F911D96958795DE
:1030D00097F90895E1E0660F771F881FBB1F6217FD
:1030E00073078407BA0720F0621B730B840BBA0BBB
:1030F000EE1F88F7E09508950E949B1D08F48FEF5E
:103100000895CF93DF938230910510F482E090E030
:10311000E091B604F091B70420E030E0C0E0D0E0E8
:10312000309711F14081518148175907C0F0481775
:10313000590761F482819381209719F09B838A83D8
:103140002BC09093B7048093B60426C02115310597
:1031500019F04217530718F49A01BE01DF01EF017D
:103160000280F381E02DDCCF2115310509F1281B08
:10317000390B2430310590F412968D919C91139760
:103180006115710521F0FB019383828304C0909344
:10319000B7048093B604FD01329644C0FD01E20FEE
:1031A000F31F81939193225031092D933C933AC0A0
:1031B0002091B4043091B504232B41F420910A01ED
:1031C00030910B013093B5042093B4042091080191
:1031D000309109012115310541F42DB73EB74091D9
:1031E0000C0150910D01241B350BE091B404F091BA
:1031F000B504E217F307A0F42E1B3F0B281739077D
:1032000078F0AC014E5F5F4F2417350748F04E0F42
:103210005F1F5093B5044093B4048193919302C00F
:10322000E0E0F0E0CF01DF91CF9108950F931F937D
:10323000CF93DF93009709F48CC0FC01329713827F
:1032400012820091B6041091B7040115110581F4A2
:1032500020813181820F931F2091B4043091B504F5
:103260002817390779F5F093B504E093B40471C0D9
:10327000D80140E050E0AE17BF0750F412962D91F0
:103280003C911397AD012115310509F1D901F3CF17
:103290009D01DA013383228360817181860F971F3C
:1032A0008217930769F4EC0128813981260F371FB3
:1032B0002E5F3F4F318320838A819B81938382835A
:1032C000452B29F4F093B704E093B60442C013965B
:1032D000FC93EE931297ED01499159919E01240FB1
:1032E000351FE217F30771F480819181840F951FD8
:1032F000029611969C938E938281938113969C9350
:103300008E931297E0E0F0E0D80112968D919C9197
:103310001397009719F0F8018C01F6CF8D919C91CD
:1033200098012E5F3F4F820F931F2091B40430917C
:10333000B5042817390769F4309729F41092B704B7
:103340001092B60402C0138212821093B504009347
:10335000B404DF91CF911F910F910895A0E0B0E0E8
:10336000E4EBF9E10C94D51EEC01009721F4CB01BC
:103370000E948118B8C0FC01E60FF71F9C01225083
:103380003109E217F30708F4ACC0D9010D911C9183
:10339000119706171707B0F00530110508F49FC004
:1033A000C80104978617970708F499C002501109BD
:1033B000061B170B019311936D937C93CF010E9411
:1033C00016198DC05B01A01AB10A4C01800E911E26
:1033D000A091B604B091B70440E050E0E12CF12C8C
:1033E000109709F44AC0A815B905D1F56D907C90E5
:1033F0001197630182E0C80ED11CCA14DB0480F16E
:10340000A3014A195B096A0182E0C80ED11C129619
:10341000BC9012971396AC91B5E0CB16D10440F056
:10342000B282A38351834083D9016D937C930AC0F8
:103430000E5F1F4FC301800F911FF901918380839D
:10344000EB2DFA2FE114F10431F0D7011396FC9320
:10345000EE93129744C0F093B704E093B6043FC0D4
:103460008D919C9111974817590708F4AC017D0183
:1034700012960D90BC91A02DB3CF8091B404909181
:10348000B50488159905E1F446175707C8F48091EB
:10349000080190910901009741F48DB79EB74091C2
:1034A0000C0150910D01841B950BE817F907C8F426
:1034B000F093B504E093B404F901718360830FC005
:1034C000CB010E9481187C01009759F0A801BE0130
:1034D0000E947D1ACE010E941619C70104C0CE01B8
:1034E00002C080E090E0CDB7DEB7EEE00C94F11EB4
:1034F00081E090E0F8940C94171FFB01DC0102C0FE
:1035000001900D9241505040D8F70895FB01DC0125
:1035100001900D920020E1F70895EF920F931F9311
:10352000CF93DF93E80147FD02C034E001C034E1EE
:10353000E42F440FFF0BF7FF03C0F195E195F1096C
:10354000E32E022F2E2FAE010E94E81ACE01DF914A
:10355000CF911F910F91EF9008954532510520F4BE
:10356000423010F00C94B81AFB011082CB01089580
:10357000BB274A3031F4992322F4BDE2909581951E
:103580009F4F0C94CF1A4532510520F4423010F071
:103590000C94CE1AFB011082CB010895BB27FB01CE
:1035A0005527AA27880F991FAA1FA41710F0A41B3C
:1035B00083955051B9F7A05DAA3308F0A95DA19396
:1035C000009779F7B111B1931192CB010C944E1D74
:1035D0004F925F926F927F929F92AF92BF92CF92E3
:1035E000DF92EF92FF920F931F93CF93DF93CDB7AC
:1035F000DEB729970FB6F894DEBF0FBECDBF6A01C4
:10360000122FB02E2BE3201720F0FF24F394F00E9E
:1036100002C0BCE3FB2E0F2D27E0AE014F5F5F4FD2
:103620000E94761CAC018981982F9970913031F0FD
:10363000E1FC06C0E0FE06C090E205C09DE203C0CA
:103640009BE201C090E0EE2DE07183FF3CC0911140
:1036500002C083E001C084E0811718F4212F281BE9
:1036600001C020E0E1110BC0F601822F30E2882377
:1036700019F031938150FBCFC20ED11C20E0992369
:1036800029F0D6019C93F60131966F01C60103968D
:10369000E2FE0AC03EE4D6013C9341E411964C930D
:1036A000119712963C9306C03EE6F601308341E640
:1036B00041833283FC01322F40E2332309F442C0BC
:1036C00041933150FACF82FF44C0911102C083E090
:1036D00001C084E0811718F4212F281B01C020E0CD
:1036E000E1110BC0F601822F30E2882319F03193EB
:1036F0008150FBCFC20ED11C20E0992329F0D601C6
:103700009C93F60131966F01C6010396E2FE0BC051
:1037100039E4D6013C933EE411963C93119736E48C
:1037200012963C9307C039E6F60130833EE63183BA
:1037300036E63283FC01322F40E2332319F0419305
:103740003150FBCFFC01E20FF11D10828EEF9FEF95
:10375000B7C0F1E0911101C0F0E06F2F70E01416D6
:10376000150624F49A012F5F3F4F02C021E030E09C
:10377000260F371FBB2029F06B2D70E06F5F7F4F46
:1037800002C060E070E0260F371F612F70E026173F
:1037900037071CF4121B212F01C020E03E2D387189
:1037A00059F4D601322F60E2332319F06D93315072
:1037B000FBCFC20ED11C20E0FF2331F0D6019C9339
:1037C000B6016F5F7F4F6B01E1110BC0F601922FC5
:1037D00030E3992319F031939150FBCFC20ED11CE5
:1037E00020E09F2D940F3A81782F7071A72E84FFCF
:1037F00003C0313309F49150191624F4993018F0AC
:1038000098E001C091E0E42F852F57FF02C0E0E06F
:1038100080E06E2F782FE0E0F0E0AEE29A2E3A01E1
:10382000691A71082A01461A570A0B2D10E01195E2
:10383000019511096F3F8FEF780729F4D6019C920B
:10384000C60101966C014617570784F06616770685
:103850006CF47F01E40CF51CA1E0B0E0AC0FBD1FDF
:10386000EA0EFB1ED7011196BC9002C090E3B92E60
:10387000615071093196C60101967C01601771078C
:1038800024F0D601BC926C01D5CF6417750741F4C2
:10389000363320F4353321F4A11002C081E3B82E71
:1038A000F601B082F701822F90E2882319F09193FC
:1038B0008150FBCFF701E20FF11D108280E090E014
:1038C00029960FB6F894DEBF0FBECDBFDF91CF9122
:1038D0001F910F91FF90EF90DF90CF90BF90AF902E
:1038E0009F907F906F905F904F900895283008F0E0
:1038F00027E03327DA01990F311D87FD916000968B
:103900006105710539F432602E5F3D9330E32A95ED
:10391000E1F708959F3F30F080387105610509F0A7
:103920003C5F3C5F3D93913008F08068911DDF93D0
:10393000CF931F930F93FF92EF92192F987F969535
:10394000E92F96959695E90FFF27E45EFE4F99279C
:103950003327EE24FF24A701E7010590089407947C
:1039600028F4360FE71EF81E491F511D660F771FFA
:10397000881F991F0694A1F70590079428F4E70E75
:10398000F81E491F561FC11D770F881F991F661FFC
:103990000694A1F70590079428F4F80E491F561FC6
:1039A000C71FD11D880F991F661F771F0694A1F7A7
:1039B0000590079420F4490F561FC71FD81F990F71
:1039C000661F771F881F0694A9F7849110951770BA
:1039D00041F0D695C79557954795F794E7941A9572
:1039E000C1F7E2ECF0E0689415901591359165917E
:1039F000959105907FE27395E118F10A430B560B00
:103A0000C90BD009C0F7E10CF11E431F561FC91F97
:103A1000D01D7EF4703311F48A95E6CFE8940150FE
:103A200030F0080F0AF40027021708F4202F23951E
:103A3000022F7A3328F079E37D932A95E9F710C0B5
:103A40007D932A9589F606949795679537951795EE
:103A50001794E118F10A430B560BC90BD00998F0E3
:103A600023957E9173957A3308F070E37C9320134D
:103A7000B8F77E9170617D9330F0839571E37D930B
:103A800070E32A95E1F71124EF90FF900F911F91B9
:103A9000CF91DF91992787FD90950895DC01FC0176
:103AA000672F71917723E1F7329704C07C916D9372
:103AB00070836291AE17BF07C8F30895E89409C0F8
:103AC00097FB3EF490958095709561957F4F8F4F51
:103AD0009F4F9923A9F0F92F96E9BB279395F69567
:103AE000879577956795B795F111F8CFFAF4BB0FE5
:103AF00011F460FF1BC06F5F7F4F8F4F9F4F16C049
:103B0000882311F096E911C0772321F09EE8872FD2
:103B1000762F05C0662371F096E8862F70E060E08E
:103B20002AF09A95660F771F881FDAF7880F969507
:103B3000879597F90895990F0008550FAA0BE0E8AB
:103B4000FEEF16161706E807F907C0F0121613065F
:103B5000E407F50798F0621B730B840B950B39F49F
:103B60000A2661F0232B242B252B21F408950A2605
:103B700009F4A140A6958FEF811D811D08950E9433
:103B8000D21D0C94431E0E94351E38F00E943C1E2C
:103B900020F0952311F00C942C1E0C94321E11244D
:103BA0000C94771E0E94541E70F3959FC1F3950FDD
:103BB00050E0551F629FF001729FBB27F00DB11DB1
:103BC000639FAA27F00DB11DAA1F649F6627B00D41
:103BD000A11D661F829F2227B00DA11D621F739F2A
:103BE000B00DA11D621F839FA00D611D221F749F38
:103BF0003327A00D611D231F849F600D211D822F7F
:103C0000762F6A2F11249F5750409AF0F1F08823A5
:103C10004AF0EE0FFF1FBB1F661F771F881F9150D2
:103C20005040A9F79E3F510580F00C942C1E0C9437
:103C3000771E5F3FE4F3983ED4F3869577956795BA
:103C4000B795F795E7959F5FC1F7FE2B880F911DFC
:103C50009695879597F9089597F99F6780E870E0A2
:103C600060E008959FEF80EC089500240A941616F2
:103C7000170618060906089500240A94121613065A
:103C8000140605060895092E0394000C11F48823E8
:103C900052F0BB0F40F4BF2B11F460FF04C06F5F04
:103CA0007F4F8F4F9F4F089557FD9058440F551FDA
:103CB00059F05F3F71F04795880F97FB991F61F0AE
:103CC0009F3F79F087950895121613061406551F25
:103CD000F2CF4695F1DF08C0161617061806991F91
:103CE000F1CF86957105610508940895E894BB2786
:103CF00066277727CB0197F90895A1E21A2EAA1B10
:103D0000BB1BFD010DC0AA1FBB1FEE1FFF1FA2178B
:103D1000B307E407F50720F0A21BB30BE40BF50B88
:103D2000661F771F881F991F1A9469F76095709511
:103D3000809590959B01AC01BD01CF010895052EA2
:103D400097FB1EF400940E94B61E57FD07D00E94F8
:103D50007D1E07FC03D04EF40C94B61E5095409582
:103D6000309521953F4F4F4F5F4F08959095809527
:103D7000709561957F4F8F4F9F4F08950E94081F48
:103D8000A59F900DB49F900DA49F800D911D1124AF
:103D90000895B7FF0C94BE1E0E94BE1E821B930B9B
:103DA00008952F923F924F925F926F927F928F92DF
:103DB0009F92AF92BF92CF92DF92EF92FF920F93BA
:103DC0001F93CF93DF93CDB7DEB7CA1BDB0B0FB6C4
:103DD000F894DEBF0FBECDBF09942A883988488881
:103DE0005F846E847D848C849B84AA84B984C88417
:103DF000DF80EE80FD800C811B81AA81B981CE0F0E
:103E0000D11D0FB6F894DEBF0FBECDBFED010895F2
:103E1000A29FB001B39FC001A39F700D811D11240B
:103E2000911DB29F700D811D1124911D089510E008
:103E3000CFEDD0E004C0FE010E9497172196C03E4E
:083E4000D107C9F7F894FFCF88
:103E48008B018B010101010A0000B8048000010008
:103E5800000000000000230BC00A0D0BEB0AFF0A4C
:103E68006A0B00000000A501C00AF90111028C01CB
:103E7800A401000000007004C00A4175746F2F008F
:103E88004163746976652F004F4E004F46460046E1
:103E9800616E3A0057617465723A00526F6F663A04
:103EA800004175746F004F50454E2048414C460004
:103EB8004F50454E2046554C4C0054656D7020536C
:103EC800657474696E670046616E20536574746921
:103ED8006E670057617465722053657474696E6704
:103EE800004C696E6561722053657474696E670071
:103EF80054696D652053657474696E67004469730D
:103F0800706C617920496E666F00564D4450565F5B
:103F1800317C315F564D4450560D0A0041542B43B5
:103F2800574D4F44453D330041542B435751415061
:103F38000041542B43574A41503D220041542B43E2
:103F4800494653520041542B43495053544152540B
:103F58003D22544350222C2200222C3830007C7CF5
:103F680000474554202F746573743F706172616D0A
:103F78003D0020485454502F312E310D0A486F739C
:103F8800743A676C617373686F7573652D686874CC
:103F98006D6C2E7268636C6F75642E636F6D0D0A9D
:103FA8000D0A0041542B43495053454E443D003EB1
:103FB80000564D4450455F32005F564D4450450D04
:103FC8000A00564D4450455F330053454E44204F38
:103FD8004B00564D4450455F310041542B434950E6
:103FE800434C4F534500766F6461666F6E65374684
:103FF8003539003858424541363446535200676CCB
:10400800617373686F7573652D6868746D6C2E7253
:1040180068636C6F75642E636F6D00564D44504332
:0C4028005F005F564D4450430D0A00003D
:00000001FF
