:100000000C94E0000C94C30A0C949C0A0C94F1022A
:100010000C94F1020C94F1020C9408010C94080168
:100020000C9408010C9408010C9408010C94300203
:100030000C9408010C9408010C94A2060C9408017D
:100040000C94520A0C9408010C942E090C94080983
:100050000C9408010C9408010C9408010C940801FC
:100060000C9408010C9408010000000024002700F3
:100070002A0000000008000201000003040700003D
:1000800000000000000000000000250028002B00F8
:1000900000000000230026002900040404040404D6
:1000A0000404020202020202030303030303010227
:1000B00004081020408001020408102001020408F6
:1000C000102000407A10F35A00A0724E1809001058
:1000D000A5D4E80000E87648170000E40B540200BD
:1000E00000CA9A3B000000E1F505000080969800E8
:1000F000000040420F000000A08601000000102711
:1001000000000000E80300000000640000000000A0
:100110000A00000000000100000000002C76D888D2
:10012000DC674F0823DFC1DFAE59E1B1B796E5E3E5
:10013000E453C63AE651997696E8E6C28426EB89FE
:100140008C9B62ED407C6FFCEFBC9C9F40F2BAA59B
:100150006FA5F490055A2AF75C936B6CF9676DC133
:100160001BFCE0E40D47FEF520E6B500D0ED902E37
:100170000300943577050080841E080000204E0A95
:10018000000000C80C333333330F986E12831141D3
:10019000EF8D2114893BE65516CFFEE6DB18D1849E
:1001A0004B381BF77C1D901DA4BBE42420328472C5
:1001B0005E228100C9F124ECA1E53D278B146D106E
:1001C00011241FBECFEFD8E0DEBFCDBF12E0A0E00C
:1001D000B1E0ECEEFAE302C005900D92A83AB10747
:1001E000D9F724E0A8EAB2E001C01D92AD33B2070E
:1001F000E1F710E0CFEDD0E004C02197FE010E94AE
:10020000E915CE3DD107C9F70E94A1100C94691DD4
:100210000C9400002091F6023091F702281739075C
:1002200071F49091F4028091F502981741F0E091F9
:10023000F402F0E0ED54FD4F808190E008958FEFDF
:100240009FEF089508951F93CF93DF93DC015C9691
:100250002D913C915D972115310539F481E090E0B5
:1002600013969C938E9312973DC05196ED91FC91FD
:10027000529750969C915097892F80951FB75E9604
:100280004C915E9741FB772770F941FD6095F8949A
:100290004081772311F0492B01C048234083E901B5
:1002A0002197F1F748E0508160FF02C0592B01C04F
:1002B00058235083E9012197F1F76695415099F74A
:1002C000772321F090818923808303C08081982B3C
:1002D00090831FBF5C968D919C915D970197F1F77C
:1002E00021E030E0C901DF91CF911F910895209165
:1002F000F6023091F7022817390771F48091F50260
:100300002091F40290E0805C9F4F821B910960E491
:1003100070E00E94C115089580E090E0089520915A
:10032000F6023091F70228173907B9F49091F402D8
:100330008091F502981789F0E091F402F0E0ED5415
:10034000FD4F80812091F40230E02F5F3F4F2F73EB
:1003500033272093F40290E008958FEF9FEF0895E4
:10036000CF92DF92EF92FF920F931F93CF93DF9381
:10037000EC01F62E642F8C810E9489098D818F3FBC
:1003800019F060E00E9489098F850F2D10E084FF2D
:1003900025C06E0187E0C80ED11CE12CF12CB801FC
:1003A0000E2C02C0759567950A94E2F76170F6010C
:1003B00081916F010E948909FFEFEF1AFF0A88E01F
:1003C000E816F10461F7CE01DF91CF911F910F91F3
:1003D000FF90EF90DF90CF900C94EA0AB80184E090
:1003E000759567958A95E1F7CE010E94000B6F2DF8
:1003F000CE01DF91CF911F910F91FF90EF90DF9091
:10040000CF900C94000B41E00E94B00181E090E09D
:1004100008951F93CF93DF931F92CDB7DEB7182FA8
:1004200069830E94600921E06981892B09F420E039
:10043000261769F065E070E080E090E00E940C0A09
:10044000812F0E94600961E0892B09F460E0862F0A
:100450000F90DF91CF911F91089540E00C94B0016F
:100460001F920F920FB60F9211242F933F934F9329
:100470005F936F937F938F939F93AF93BF93EF930C
:10048000FF938091F30287FF05C0109285001092C0
:1004900084001BC02091F302022E000C330B8091CC
:1004A000D30390E02817390784F48091F302082ED3
:1004B000000C990BFC01EE0FFF1F8E0F9F1FFC011C
:1004C000E155FC4F808186FD15C08091F3028F5F5E
:1004D0008093F3022091F302022E000C330B8091E3
:1004E000D30390E028173907C4F48091F3028C30CD
:1004F00064F113C08091F302082E000C990BFC01EB
:10050000EE0FFF1F8E0F9F1FFC01E155FC4F8081F6
:1005100060E08F730E948909D8CF80918400909108
:100520008500049680349C4918F480E49CE905C059
:100530008091840090918500049690938900809327
:1005400088008FEF8093F3023BC0209184003091AC
:1005500085008091F302082E000C990BFC01EE0F30
:10056000FF1F8E0F9F1FFC01E155FC4F818192817F
:10057000820F931F90938900809388008091F302EB
:10058000082E000C990BFC01EE0FFF1F8E0F9F1F12
:10059000FC01E155FC4F808186FF12C08091F3027F
:1005A000082E000C990BFC01EE0FFF1F8E0F9F1FF2
:1005B000FC01E155FC4F808161E08F730E94890945
:1005C000FF91EF91BF91AF919F918F917F916F912B
:1005D0005F914F913F912F910F900FBE0F901F9001
:1005E00018951F920F920FB60F9211242F933F93DD
:1005F0004F935F936F937F938F939F93AF93BF932B
:10060000EF93FF93E091F602F091F702309709F42F
:1006100051C0968DA685B785858591FF04C09C91B4
:10062000892329F447C09C91892309F043C0A389F9
:10063000B4899C918589809589238C938689978933
:100640000197F1F7608D718DA685B785558538E0E6
:1006500020E0CB010197F1F7822F90E095958795E7
:10066000282F4C91452309F02068315091F7868D51
:1006700081FD20958091F50290E001968F73992776
:100680003091F402381749F0A091F502B0E0AD5472
:10069000BD4F2C938093F50203C0868D8160868FB9
:1006A000828D938D0197F1F7A389B4899C918589F7
:1006B000892B8C93FF91EF91BF91AF919F918F9177
:1006C0007F916F915F914F913F912F910F900FBE4E
:1006D0000F901F90189561E081E294E00E942D0236
:1006E0008BE39FE10197F1F7E1E080913404811100
:1006F000E0E0E195F0E0EF5DFB4F6489606881E246
:1007000094E00E942D024091EB035091EC03609124
:10071000E7037091E80381E294E00E947708E0919A
:100720003404E23010F4E15001C0E1E0F0E0EF5DAC
:10073000FB4F6489606881E294E00E942D02409141
:10074000E5035091E6036091E1037091E20381E2D9
:1007500094E00C9477081F93CF93DF9300D000D0E0
:1007600000D0CDB7DEB71091B202612F83E00E94B6
:1007700009028093B1021111F1C1882309F4EEC17D
:100780008091FC029091FD02009709F0B1C0809128
:10079000FA029091FB028230910509F46DC034F4A5
:1007A000009751F1019709F445C0D8C183309105F4
:1007B00009F491C0049709F0D1C11092FB02109284
:1007C000FA0260E572E081EE93E00E94490F6091C9
:1007D00005037091060380910703909108030E941E
:1007E000890D66E471E081EE93E00E94330F809101
:1007F00007010E94630DB2C181E090E09093FB027B
:100800008093FA026FE471E081EE93E00E94490F59
:1008100080910601811103C060E471E002C06AE3C7
:1008200071E081EE93E00E94330F8091020390917A
:1008300003031DC082E090E09093FB028093FA02D4
:1008400064E571E081EE93E00E94490F809105011B
:10085000811103C060E471E002C06AE371E081EEDF
:1008600093E00E94330F8091000390910103019760
:1008700079F568E471E022C083E090E09093FB0298
:100880008093FA026BE571E081EE93E00E94490FDC
:1008900080910401811103C060E471E002C06AE349
:1008A00071E081EE93E00E94330F8091FE029091FF
:1008B000FF028130910539F46BE671E081EE93E03F
:1008C0000E94330F4BC1029719F465E771E0F6CF30
:1008D0006BE471E0F3CF84E090E09093FB028093AF
:1008E000FA0264ED73E081EE93E00E94600F36C17E
:1008F0008130910501F5809107018F5F8093070199
:100900008B3118F48091070101C08AE080930701C0
:10091000609107014AE0CE0101960E94E10FBE01FD
:100920006F5F7F4F81EE93E00E94770FCE010196BB
:100930000E94B00F93C08230910521F5809106018D
:10094000882349F01092060181E090E09093030320
:10095000809302030EC080910203909103030197DC
:1009600029F4109203031092020303C081E08093E4
:10097000060180910601811159C080910203909176
:10098000030326C08330910541F58091050188233A
:1009900049F01092050181E090E09093010380936B
:1009A00000030EC08091000390910103019729F488
:1009B000109201031092000303C081E080930501AF
:1009C00080910501811132C0809100039091010353
:1009D0000197F1F568E471E03DC08430910509F0BC
:1009E00041C080910401882329F01092040181E024
:1009F00090E009C08091FE029091FF028130910544
:100A000039F482E090E09093FF028093FE020AC0E6
:100A1000029729F41092FF021092FE0203C081E0B7
:100A20008093040180910401882319F061E671E04C
:100A300011C08091FE029091FF028130910519F45E
:100A400066E671E007C0029719F460E771E002C042
:100A50006BE471E081EE93E00E94490F81E08093A6
:100A600004037CC0059709F079C081E08093E0031E
:100A70008091F8029091F9020097F9F48091DA03DD
:100A80009091DB039093B0028093AF028091AF020C
:100A90009091B00201969093B0028093AF02489774
:100AA0002CF48091AF029091B00202C080E090E0FF
:100AB0009093B0028093AF0220C00197F1F480912F
:100AC000DC039091DD039093AE028093AD028091A0
:100AD000AD029091AE0201969093AE028093AD026A
:100AE000CC972CF48091AD029091AE0202C080E0D0
:100AF00090E09093AE028093AD028091AF0290910E
:100B0000B0029093DB038093DA038091AD02909161
:100B1000AE029093DD038093DC03CE0101960E9428
:100B20002310BE016F5F7F4F84ED93E00E94770F2B
:100B3000CE0101960E94B00F64ED73E082E193E074
:100B40000E94501060E572E081EE93E00E94490F30
:100B500064ED73E081EE93E00E94420F8091B10258
:100B60008093B2020E946B0326960FB6F894DEBF04
:100B70000FBECDBFDF91CF911F910895CF93C0914C
:100B8000B2026C2F82E00E9409028093B102C1116F
:100B9000D2C0882309F4CFC08091FC029091FD025D
:100BA00082309105D9F12CF4009769F00197F1F0AA
:100BB000C2C08430910509F470C00CF448C0059798
:100BC00009F47EC0B8C081E090E09093FD0280936C
:100BD000FC026AE771E087EE93E00E94490F60E54E
:100BE00072E081EE93E00E94490FA1C082E090E0A4
:100BF0009093FD028093FC0267E871E087EE93E03A
:100C00000E94490F80910601882319F061E671E086
:100C10003FC0809102039091030314C083E090E0F1
:100C20009093FD028093FC0263E971E087EE93E00C
:100C30000E94490F809105018111E8CF8091000346
:100C400090910103019711F568E471E021C084E0FF
:100C500090E09093FD028093FC0261EA71E087EEE0
:100C600093E00E94490F809104018111CFCF8091C0
:100C7000FE029091FF028130910519F466E671E061
:100C800007C0029719F460E771E002C06BE471E0FD
:100C900081EE93E00E94490F4EC085E090E0909372
:100CA000FD028093FC0260EB71E087EE93E00E940E
:100CB000490F64ED73E081EE93E00E94600F3BC04A
:100CC0008091F8029091F902009739F481E090E068
:100CD0009093F9028093F8022EC0019761F510926B
:100CE000F9021092F8021092FB021092FA0210928E
:100CF000FD021092FC026DEB71E087EE93E00E9422
:100D0000490F60E572E081EE93E00E94490F609127
:100D100005037091060380910703909108030E94D8
:100D2000890D66E471E081EE93E00E94330F8091BB
:100D300007010E94630D8091B1028093B202CF91AE
:100D40000C946B031F920F920FB60F9211240F9306
:100D50001F932F933F934F935F936F937F938F9343
:100D60009F93AF93BF93EF93FF93CF93DF93CDB751
:100D7000DEB72697DEBFCDBF0E94460A0091A902CA
:100D80001091AA022091AB023091AC02DC01CB01A0
:100D9000801B910BA20BB30B893E9340A105B105BB
:100DA00008F478C08091A8028F5F8093A8020E9407
:100DB000460A6093A9027093AA028093AB029093B3
:100DC000AC028091E003882309F441C060E572E041
:100DD000CE0101960E940E108091DE039091DF03F8
:100DE00001968C3391052CF49093DF038093DE03FE
:100DF0000DC01092DF031092DE038091DC0390910E
:100E0000DD0301969093DD038093DC038091DC0386
:100E10009091DD03CC976CF01092DD031092DC030F
:100E20008091DA039091DB0301969093DB0380932A
:100E3000DA038091DA039091DB03489724F0109253
:100E4000DB031092DA03CE0101960E94B00FCE01AF
:100E500001960E942310BE016F5F7F4F84ED93E0E7
:100E60000E94770FCE0101960E94B00F8091FC0284
:100E70009091FD02892B61F48091FA029091FB021E
:100E8000049731F464ED73E081EE93E00E94600F0B
:100E90000E946B038091A802843008F457C010921E
:100EA000A8020E94460A6093A9027093AA02809346
:100EB000AB029093AC0280E00E94F509BC01990F4F
:100EC000880B990B0E94B21B20E030E040E85AE307
:100ED0000E94111C20E030E44CE955E40E94111CF2
:100EE00020E030E040E251E40E945C16609305038C
:100EF0007093060380930703909308038091FC028C
:100F00009091FD02892B01F58091FA029091FB02EC
:100F1000892BD1F460E572E081EE93E00E94490FE5
:100F20006091050370910603809107039091080377
:100F30000E94890D66E471E081EE93E00E94330F18
:100F4000809107010E94630D0E946B03809106014E
:100F5000882379F16091070170E080E090E00E94C1
:100F6000B21B9B01AC016091050370910603809157
:100F70000703909108030E94EF1520E030E040EA5B
:100F800050E40E94CE1618165CF461E08AE00E94DC
:100F9000890981E090E0909303038093020315C0D8
:100FA00060E08AE00E948909109203031092020314
:100FB0000CC08091020390910303019711F461E04A
:100FC00001C060E08AE00E948909809105018823C0
:100FD00061F08091DA039091DB038630910509F48A
:100FE00057C00C9709F05FC053C0809100039091E7
:100FF0000103019711F461E001C060E08BE00E9401
:10100000890980910401882379F16091070170E0DA
:1010100080E090E00E94B21B9B01AC01609105034F
:101020007091060380910703909108030E94EF15C9
:1010300020E030E040EA50E40E94CE1618165CF43E
:101040008AE590E00E94C10C81E090E09093FF025D
:101050008093FE0231C080E090E00E94C10C1092AB
:10106000FF021092FE0228C08091FE029091FF02C2
:101070008130910519F48AE590E007C0029719F4D0
:1010800084EB90E002C080E090E00E94C10C14C0AC
:1010900061E08BE00E94890981E090E09093010378
:1010A00080930003AECF60E08BE00E94890910922C
:1010B000010310920003A5CF26960FB6F894DEBF69
:1010C0000FBECDBFDF91CF91FF91EF91BF91AF9157
:1010D0009F918F917F916F915F914F913F912F9150
:1010E0001F910F910F900FBE0F901F901895CF92E8
:1010F000DF92EF92FF920F931F93CF93DF936C01D8
:101100007A018B01C0E0D0E0CE15DF0589F0D8016F
:101110006D918D01D601ED91FC910190F081E02D52
:10112000C6010995892B11F47E0102C02196ECCFEE
:10113000C701DF91CF911F910F91FF90EF90DF904A
:10114000CF900895833081F028F4813099F0823077
:10115000A1F008958730A9F08830B9F08430D1F437
:10116000809180008F7D03C0809180008F77809375
:101170008000089584B58F7702C084B58F7D84BDCB
:1011800008958091B0008F7703C08091B0008F7D6B
:101190008093B00008953FB7F89480910E0390912A
:1011A0000F03A0911003B091110326B5A89B05C0B1
:1011B0002F3F19F00196A11DB11D3FBFBA2FA92FD6
:1011C000982F8827820F911DA11DB11DBC01CD0153
:1011D00042E0660F771F881F991F4A95D1F708953F
:1011E000089582E193E00E944F0B21E0892B09F4DE
:1011F00020E0822F08950E94CA18DC01ED91FC9135
:101200000280F381E02D42E050E06EE472E0099448
:101210001F920F920FB60F9211242F933F934F936B
:101220005F936F937F938F939F93AF93BF93EF934E
:10123000FF9382E193E00E947D0EFF91EF91BF91B9
:10124000AF919F918F917F916F915F914F913F915E
:101250002F910F900FBE0F901F9018951F920F9215
:101260000FB60F9211242F938F939F93EF93FF93B9
:10127000E0912203F09123038081E0912803F09113
:10128000290382FD12C0908180912B038F5F8F73A1
:1012900020912C03821751F0E0912B03F0E0EE5ED9
:1012A000FC4F958F80932B0301C08081FF91EF91BC
:1012B0009F918F912F910F900FBE0F901F901895B7
:1012C000CF93DF93282F30E0F901EE58FF4F849140
:1012D000F901E255FF4FD491F901E656FF4FC49151
:1012E000CC2391F081110E94A208EC2FF0E0EE0FC8
:1012F000FF1FE057FF4FA591B491EC91ED2381E0E2
:1013000090E021F480E002C080E090E0DF91CF9196
:1013100008951F93CF93DF93282F30E0F901EE5803
:10132000FF4F8491F901E255FF4FD491F901E65640
:10133000FF4FC491CC23C9F0162F81110E94A2083F
:10134000EC2FF0E0EE0FFF1FEA57FF4FA591B4918D
:101350008FB7F894111105C09C91ED2FE095E9230A
:1013600002C0EC91ED2BEC938FBFDF91CF911F91D9
:101370000895CF93DF9390E0FC01E255FF4F249155
:10138000FC01E656FF4F8491882361F190E0880FBD
:10139000991FFC01E859FF4FC591D491FC01EA5710
:1013A000FF4FA591B491611109C09FB7F89488814E
:1013B000209582238883EC912E230BC0623061F448
:1013C0009FB7F8943881822F809583238883EC918E
:1013D0002E2B2C939FBF06C08FB7F894E8812E2B3D
:1013E00028838FBFDF91CF9108958E3008F08E5003
:1013F0008770806480937C0080917A008064809301
:101400007A0080917A0086FDFCCF8091780020914F
:10141000790090E0922B08958F929F92AF92BF92A5
:10142000CF92DF92EF92FF926B017C010E94CB087A
:101430004B015C01C114D104E104F104F1F00E94FC
:10144000CB08DC01CB0188199909AA09BB09883EA0
:101450009340A105B10570F321E0C21AD108E1085B
:10146000F10888EE880E83E0981EA11CB11CC114FF
:10147000D104E104F10419F7DDCFFF90EF90DF9084
:10148000CF90BF90AF909F908F9008952FB7F89412
:1014900060910A0370910B0380910C0390910D03EE
:1014A0002FBF08951F920F920FB60F9211242F9302
:1014B0003F938F939F93AF93BF9380910A03909133
:1014C0000B03A0910C03B0910D033091090323E0AD
:1014D000230F2D3720F40196A11DB11D05C026E86C
:1014E000230F0296A11DB11D2093090380930A03C7
:1014F00090930B03A0930C03B0930D0380910E0304
:1015000090910F03A0911003B09111030196A11DBA
:10151000B11D80930E0390930F03A0931003B0931B
:101520001103BF91AF919F918F913F912F910F9098
:101530000FBE0F901F9018951F920F920FB60F922B
:1015400011242F933F934F935F936F937F938F93C8
:101550009F93AF93BF93EF93FF93E0910201F091BC
:1015600003010995FF91EF91BF91AF919F918F91E9
:101570007F916F915F914F913F912F910F900FBE8F
:101580000F901F9018951F920F920FB60F92112473
:101590002F933F934F935F936F937F938F939F937B
:1015A000AF93BF93EF93FF93E0910001F09101019E
:1015B0000995FF91EF91BF91AF919F918F917F918D
:1015C0006F915F914F913F912F910F900FBE0F90B0
:1015D0001F901895CF93DF93EC0160E08E810E94FD
:1015E000890961E08E810E94890960E08E810E94F4
:1015F00089098BE891E00197F1F7DF91CF91089588
:10160000CF92DF92EF92FF920F931F93CF93DF93CE
:101610007C016C0187E0C80ED11CC0E0D0E0062F31
:1016200010E0B8010C2E02C0759567950A94E2F798
:101630006170F60181916F010E9489092196C43081
:10164000D10579F7C701DF91CF911F910F91FF90DD
:10165000EF90DF90CF900C94EA0AFC01918D828D7F
:10166000981761F0828DDF01A80FB11D5D968C91F6
:10167000928D9F5F9F73928F90E008958FEF9FEF01
:101680000895FC01918D828D981731F0828DE80FBD
:10169000F11D858D90E008958FEF9FEF0895FC0177
:1016A000918D228D892F90E0805C9F4F821B910944
:1016B0008F739927089580E090E0892B29F00E948C
:1016C000F10881110C94000008950895CF93DF93E1
:1016D000EC0188819981009711F00E9468171982A6
:1016E00018821D821C821B821A82DF91CF9108957D
:1016F0000F931F93CF93DF93EC018881998100971B
:1017000029F02A813B812617370788F48B016F5F08
:101710007F4F0E940018009761F0998388831B8394
:101720000A832C813D81232B11F4FC01108281E07E
:1017300001C080E0DF91CF911F910F910895EF924A
:10174000FF920F931F93CF93DF93FC012481358188
:101750006115710511F480E019C041155105A9F01A
:101760007B01EC018A01020F131FB8010E94780B64
:10177000882389F3288139818C819D81B701820F6B
:10178000931F0E94D8181D830C8381E0DF91CF91B5
:101790001F910F91FF90EF900895EF92FF920F939A
:1017A0001F93CF93DF93CDB7DEB728970FB6F8948A
:1017B000DEBF0FBECDBF7C01CB014AE08E010F5FC3
:1017C0001F4FB8010E940A19F80101900020E9F7A3
:1017D0003197AF01401B510BB801C7010E949F0B0D
:1017E00028960FB6F894DEBF0FBECDBFDF91CF9124
:1017F0001F910F91FF90EF900895EF92FF920F933A
:101800001F93CF93DF93EC017B018A01BA010E9401
:10181000780B811104C0CE010E94660B07C01D83A6
:101820000C83B701888199810E94D818CE01DF917D
:10183000CF911F910F91FF90EF900895EF92FF923B
:101840000F931F93CF93DF93EC01623018F08F85D5
:1018500088608F876B8B1C8A80E48D8B80E18E8BF8
:1018600080E58F8B61E08C810E94B9098D818F3F6B
:1018700019F061E00E94B90961E08E810E94B90906
:101880007E0187E0E80EF11C00E010E08F8584FD0A
:1018900003C084E090E002C088E090E008171907D8
:1018A0004CF461E0F70181917F010E94B9090F5F5B
:1018B0001F4FECCF8BE39DE00197F1F760E08C8147
:1018C0000E94890960E08E810E9489098D818F3F85
:1018D00019F060E00E9489096F8564FD1DC063E016
:1018E000CE010E94000B0BE416E4C8010197F1F74A
:1018F00063E0CE010E94000BC8010197F1F763E09D
:10190000CE010E94000B83E592E00197F1F762E0BF
:10191000CE010E94000B16C06062CE010E942D0213
:101920008BE496E40197F1F76F856062CE010E9427
:101930002D0283E592E00197F1F76F856062CE0199
:101940000E942D026F856062CE010E942D0284E00C
:10195000888B6CE0CE010E942D0261E0CE010E94D6
:101960002D028BE39FE10197F1F782E0898B66E01E
:10197000CE01DF91CF911F910F91FF90EF900C94CA
:101980002D02CF92DF92EF92FF92DC01A03282E033
:10199000B8070CF03EC0B7FD06C0A53BB1052CF062
:1019A000A4EBB0E002C0A0E0B0E080911F0428E802
:1019B00030E06901C81AD10887FDD394CC0CDD1C36
:1019C000CC0CDD1C0D2C000CEE08FF0880912004CF
:1019D00028E532E0281B310987FD3395220F331F9C
:1019E000220F331FA901330F660B770B9A01AB014E
:1019F0002C193D094E095F090E94F91C24EB30E0C7
:101A000040E050E00E94CF1CC20ED31EE41EF51E23
:101A1000D60190911E049C3098F580911F0448E8EF
:101A200050E0481B510987FD5395440F551F440F43
:101A3000551FA417B5078CF08091200428E532E0EB
:101A4000281B310987FD3395220F331F220F331FC7
:101A5000AD012A173B070CF4A90142505109440F6C
:101A6000551F2FB7F894892F90E0FC01EE0FFF1F50
:101A70008E0F9F1FFC01E155FC4F528341832FBF06
:101A8000FF90EF90DF90CF900895CF93DF93009772
:101A900079F0FC0101900020E9F73197AF01481B74
:101AA000590BBC018FEF93E00E947708EC0102C054
:101AB000C0E0D0E08FEF93E00E94FD088C0F9D1FE7
:101AC000DF91CF9108950F931F93CF93DF9300D0B1
:101AD00000D0CDB7DEB74AE08E010F5F1F4FB801CF
:101AE00090E00E940A19F80101900020E9F731976F
:101AF000AF01401B510BB80181EE93E00E949F0B98
:101B00000F900F900F900F90DF91CF911F910F9139
:101B100008950F931F93CF93DF93CDB7DEB76497EC
:101B20000FB6F894DEBF0FBECDBF8E010F5F1F4F03
:101B300022E044E00E94DF18FC0101900020E9F758
:101B40003197AF01481B590BBC0181EE93E00E9415
:101B50009F0B64960FB6F894DEBF0FBECDBFDF912A
:101B6000CF911F910F9108956F927F928F929F92C4
:101B7000AF92BF92CF92DF92EF92FF920F931F939B
:101B8000CF93DF93EC0186E0869F5001879FB00CD6
:101B90001124AC0EBD1EFE01EA15FB05B8F48281CE
:101BA0009381892B09F455C03696F6CFE091FF0357
:101BB000F09100040680F781E02D8FEF93E0099506
:101BC00097FD0FC0FE01EA15FB0558F10E94460A79
:101BD00060930704709308048093090490930A04A7
:101BE000E5CF0E94460A0091070410910804209155
:101BF000090430910A04DC01CB01801B910BA20B7C
:101C0000B30B00910304109104042091050430915A
:101C1000060480179107A207B30740F28FEF9FEFEA
:101C20005DC06081718144815581DB01A40FB51FC6
:101C30002C91022E000C330B82179307C1F44F5FD7
:101C40005F4F55834483228133814217530709F044
:101C500043C0EC1BFD0BF595E7952BEA3AEAE29FB2
:101C6000C001E39F900DF29F900D112437C04115E4
:101C7000510591F1E480F5809701215031093583B8
:101C80002483DB01A20FB31FAC910A2E000CBB0B07
:101C90008A179B07F9F421153105C9F06B018A01F8
:101CA000021B130B060F171F612C712CD6018D9090
:101CB0006D01D8019D908D01891006C0BFEF6B1A90
:101CC0007B0A6216730690F36216730699F6F58224
:101CD000E48202C0232B71F6369675CFDF91CF9147
:101CE0001F910F91FF90EF90DF90CF90BF90AF903A
:101CF0009F908F907F906F900895FC01848DDF01FD
:101D0000A80FB11DA35ABF4F2C91848D90E001966E
:101D10008F739927848FA689B7892C93A089B1895D
:101D20008C9180648C93938D848D981306C0028867
:101D3000F389E02D80818F7D80830895EF92FF925B
:101D40000F931F93CF93DF93EC0181E0888F9B8DDE
:101D50008C8D981305C0E889F989808185FD24C0A0
:101D6000F62E0B8D10E00F5F1F4F0F731127E02E23
:101D70008C8DE8120CC00FB607FCFACFE889F98900
:101D8000808185FFF5CFCE010E947D0EF1CF8B8D36
:101D9000FE01E80FF11DE35AFF4FF0820B8FEA8935
:101DA000FB898081806207C0EE89FF896083E889B2
:101DB000F98980818064808381E090E0DF91CF9118
:101DC0001F910F91FF90EF900895CF93DF93EC0157
:101DD000888D8823C9F0EA89FB89808185FD05C04B
:101DE000A889B9898C9186FD0FC00FB607FCF5CF85
:101DF000808185FFF2CFA889B9898C9185FFEDCFCD
:101E0000CE010E947D0EE7CFDF91CF910895CF9351
:101E1000DF93EC016115710561F0FB010190002079
:101E2000E9F73197AF01461B570B0E949F0B8111B9
:101E300003C0CE010E94660BCE01DF91CF910895C1
:101E4000CF93DF93EC01FB01448155816081718167
:101E50000E949F0B811103C0CE010E94660BCE0130
:101E6000DF91CF9108956115710551F0FB0101904B
:101E70000020E9F73197AF01461B570B0C949F0BDD
:101E800080E00895FB0144815581608171810C944B
:101E90009F0BCF93DF93EC016115710559F0FB01A6
:101EA00001900020E9F73197AF01461B570B0E94C4
:101EB000FD0B02C00E94660BCE01DF91CF91089509
:101EC000CF93DF93EC01FB018617970761F06081E8
:101ED00071816115710529F0448155810E94FD0BC6
:101EE00002C00E94660BCE01DF91CF9108950F933F
:101EF0001F93CF93DF938C01EB01FC0180819181D3
:101F00000097B1F0688179816115710579F042819E
:101F100053812C813D814217530740F00E94D8180D
:101F20008C819D81F8019583848313C00E9468177A
:101F300088819981F801918380838A819B81938331
:101F400082838C819D8195838483198218821B8270
:101F50001A821D821C82DF91CF911F910F910895EB
:101F6000FC01808191810C9468170F931F93CF938C
:101F7000DF93CDB7DEB762970FB6F894DEBF0FBE22
:101F8000CDBF8C01CB01F801118210821382128225
:101F90001582148250E0BE016F5F7F4F0E94FF18D0
:101FA000BE016F5F7F4FC8010E94490F62960FB656
:101FB000F894DEBF0FBECDBFDF91CF911F910F917F
:101FC00008950F931F93CF93DF93CDB7DEB7299773
:101FD0000FB6F894DEBF0FBECDBF8C01862FF8017F
:101FE00011821082138212821582148250E0BE0187
:101FF0006F5F7F4F90E00E941519BE016F5F7F4FAA
:10200000C8010E94490F29960FB6F894DEBF0FBE93
:10201000CDBFDF91CF911F910F910895FC011182E7
:10202000108213821282158214826115710551F09B
:10203000FB0101900020E9F73197AF01461B570BD8
:102040000C94FD0B08950F931F93CF93DF93EC0136
:1020500060E572E00E940E100AED13E0F801608165
:102060007181CE010E94CD0B6FE571E0CE010E941F
:10207000330FF80162817381CE010E94CD0B6FE5B1
:1020800071E0CE010E94330FF80164817581CE01A9
:102090000E94CD0BCE01DF91CF911F910F9108953A
:1020A0000F931F93CF93DF93EC01E881F981DB015C
:1020B00014964D915C9115976D917C910280F381FE
:1020C000E02D09958C01CE010E94FD08800F911F23
:1020D000DF91CF911F910F91089584ED93E00E94BD
:1020E000B00F81EE93E00E94B00F87EE93E00E9464
:1020F000B00F8DEE93E00E94B00F83EF93E00E944B
:10210000B00F89EF93E00E94B00F86E291E09093C8
:1021100000048093FF038091F6029091F7028F5F95
:10212000934071F4E0911204F09113049081809136
:1021300014048095892380831092F7021092F6028E
:102140000895CF93DF93CDB7DEB7E9970FB6F89434
:10215000DEBF0FBECDBF789484B5826084BD84B5E8
:10216000816084BD85B5826085BD85B5816085BD92
:1021700080916E00816080936E001092810080914A
:1021800081008260809381008091810081608093D2
:102190008100809180008160809380008091B100F7
:1021A00084608093B1008091B00081608093B00022
:1021B00080917A00846080937A0080917A008260B6
:1021C00080937A0080917A00816080937A00809178
:1021D0007A00806880937A001092C10010921A04ED
:1021E00010921904109218041092170410921604F9
:1021F000109215048FE190E090931C0480931B04CF
:1022000090910B04963108F057C021E030E03093F4
:102210001604209315042DE130E030931804209328
:1022200017042DE030E030931A0420931904209114
:102230006800983050F031E09E3008F430E081E0E2
:1022400001C0880F3A95EAF701C084E0822B8093A1
:102250006800983038F09E3040F0963148F020E029
:1022600030E008C02DE630E005C02BE630E002C0CB
:102270002CE630E03093130420931204983030F4AD
:1022800081E001C0880F9A95EAF70EC0292F30E04F
:102290009E3018F42850310902C02E50310981E0D7
:1022A00001C0880F2A95EAF78093140480911B04DB
:1022B00090911C040197F1F78091190490911A04F0
:1022C000892B49F1E091F602F091F70283E0EF3FAC
:1022D000F80709F1309739F0A389B4899C91858971
:1022E000809589238C9380911D048E7F80931D049B
:1022F0001092F5021092F4028FEF93E09093F702A0
:102300008093F602E0911204F09113049081809181
:102310001404892B808380E00E94F509BC01990F89
:10232000880B990B0E94B21B20E030E040E85AE392
:102330000E94111C20E030E44CE955E40E94111C7D
:1023400020E030E040E251E40E945C166B017C0129
:10235000609305037093060380930703909308032B
:102360001092FD021092FC021092FB021092FA02EF
:102370001092F9021092F8021092030310920203D5
:1023800010920103109200031092FF021092FE02BD
:1023900081E0809304036DEB71E087EE93E00E948F
:1023A000490FC701B6010E94890D66E471E081EE14
:1023B00093E00E94330F809107010E94630D8FEF1D
:1023C00087BD80916E00826080936E0062E081E242
:1023D00094E00E941E0C0E946B0361E08AE00E9460
:1023E000B90961E08BE00E94B90980911E048C302C
:1023F00008F051C061E08CE00E94B90980911E0490
:10240000E82FF0E09F01220F331FE20FF31FE15589
:10241000FC4F9081907C9C60908310921F041092DE
:1024200020046CE00E94B5159CE0899FB001112446
:1024300040E050E09A01260F371FF901EE0FFF1F11
:102440002E0F3F1FF901E155FC4F908196FD16C0FC
:102450004F5F5F4F4C30510569F781110FC01092EB
:10246000800082E0809381001092850010928400A9
:10247000B19A80916F00826080936F00E0911E049A
:10248000F0E0CF01880F991FE80FF91FE155FC4FCD
:1024900080818064808360E082E00E94B90960E00E
:1024A00083E00E94B9098EEB95E09093010180933F
:1024B0000001809169008C7F816080936900E89AB7
:1024C0008BEA93E09093030180930201809169006D
:1024D000837F846080936900E99A8AEC91E00E948E
:1024E000450D64EF71E080E090E00E940C0A86EDFB
:1024F00091E00E94450D64EF71E080E090E00E9461
:102500000C0A6FED71E0FE0131967F01CF010E9450
:102510000E1069EF73E0C7010E94200F63E072E0C4
:102520000E94070F63EF73E00E94200F65E072E0E6
:102530000E94070F1BA21AA21DA21CA21FA21EA26C
:10254000BC01CE0182960E94600FC7010E94B00FAD
:10255000BE016E5D7F4F8FEF93E00E94501068E5E3
:102560007BE180E090E00E940C0A8AEE91E00E94FC
:10257000450D64EF71E080E090E00E940C0ACE010E
:1025800082960E94B00F86E0582E9DE5C92E92E0FB
:10259000D92EAA24A394B12C3FE5832E32E0932EAA
:1025A00047E0642E712C63EF71E0C7010E940E10AA
:1025B0006DEE73E0C7010E94200F67E072E00E9499
:1025C000070FBC018FEF93E00E945010C7010E94DB
:1025D000B00F68EE73E080E090E00E940C0A60911A
:1025E00007014AE0CE0182960E94E10F6091050347
:1025F00070910603809107039091080319A618A60D
:102600001BA61AA61DA61CA6870122E044E00E9474
:10261000DF18BC01CE0188960E94490F6091040327
:102620004AE0CE018E960E94E10F1A8219821C8226
:102630001B821E821D82BE01625D7F4FC7010E9408
:10264000600F6CE072E0C7010E94070FBE01685D79
:102650007F4F0E94200F6CE072E00E94070FBE01C6
:102660006E5D7F4F0E94200F1DAA1CAA1FAA1EAAE2
:1026700019AE18AEBC01CE01C4960E94600FC7010E
:102680000E94B00FCE018E960E94B00FCE018896A8
:102690000E94B00FCE0182960E94B00F609102039B
:1026A000709103034AE0C7010E94B50F60910601D3
:1026B00070E04AE0CE0182960E94B50F6CE072E0B5
:1026C000CE0188960E940E10BE016E5D7F4FCE0136
:1026D00088960E94200F6CE072E00E94070FB701FD
:1026E0000E94200FBC01CE01C4960E94420FCE0171
:1026F00088960E94B00FCE0182960E94B00FC7014B
:102700000E94B00F60910003709101034AE0C7017D
:102710000E94B50F6091050170E04AE0CE018296FB
:102720000E94B50F6CE072E0CE0188960E940E10F8
:10273000BE016E5D7F4FCE0188960E94200F6CE037
:1027400072E00E94070FB7010E94200FBC01CE016A
:10275000C4960E94420FCE0188960E94B00FCE010F
:1027600082960E94B00FC7010E94B00F6091FE02D6
:102770007091FF024AE0C7010E94B50F6091040109
:1027800070E04AE0CE0182960E94B50F6CE072E0E4
:10279000CE0188960E940E10BE016E5D7F4FCE0165
:1027A00088960E94200F6CE072E00E94070FB7012C
:1027B0000E94200FBC01CE01C4960E94420FCE01A0
:1027C00088960E94B00FCE0182960E94B00FC7017A
:1027D0000E94B00F6FE072E0C7010E940E10BE01B0
:1027E0006C5C7F4FC7010E94200F60E272E00E9484
:1027F000070F1FA61EA619AA18AA1BAA1AAABC016F
:10280000CE018E960E94600FC7010E94B00F61E555
:1028100072E0CE0188960E940E108AA99BA91BA285
:102820001AA21DA21CA21FA21EA24AE0B7010E946A
:102830002019B701CE0182960E94490FBE016E5D3C
:102840007F4FCE0188960E94420FCE0182960E9451
:10285000B00FBE01685D7F4F8FEF93E00E94501074
:1028600068EE73E080E090E00E940C0AF701852D8D
:1028700011928A95E9F7DA82C982BC82AB8261E063
:1028800070E0C7010E94B40D892B31F468EE73E04B
:1028900080E090E00E940C0ABE01625D7F4F8FEFE6
:1028A00093E00E94501068EE73E080E090E00E9498
:1028B0000C0A8FEF93E00E947701892B99F0F701C2
:1028C000852D11928A95E9F79A8289827C826B82A2
:1028D00061E070E0C7010E94B40D892B51F710929E
:1028E0000403E7CF87E692E00E94450DCE0188966B
:1028F0000E94B00FCE018E960E94B00FCE01C496FA
:102900000E94B00F68E873E180E090E00E940C0A3A
:102910000E945B0B48CECF931092150310921403C4
:1029200088EE93E0A0E0B0E0809316039093170345
:10293000A0931803B093190386E191E090931303D9
:102940008093120385EC90E090931F0380931E0305
:1029500084EC90E0909321038093200380EC90E03E
:10296000909323038093220381EC90E090932503BE
:102970008093240382EC90E09093270380932603B6
:1029800086EC90E0909329038093280310922B0308
:1029900010922C0310922D0310922E0310922404F7
:1029A0001092230486E391E0909322048093210403
:1029B00084E080932504CFEFC093260485E08093C4
:1029C000270486E08093280487E08093290488E028
:1029D00080932A0489E080932B0410922C04109297
:1029E0002D0410922E0410922F041092300461E0F6
:1029F00081E294E00E941E0C8091D3038C30A0F4FD
:102A000091E0980F9093D30380931E0490E0FC0113
:102A1000EE0FFF1F8E0F9F1FFC01E155FC4F88EB4F
:102A20009BE09283818302C0C0931E041092020433
:102A30001092010488EE93E0A0E0B0E080930304DC
:102A400090930404A0930504B093060486E291E0F9
:102A5000909300048093FF031092160410921504C3
:102A6000109218041092170410921A04109219046C
:102A700010921C0410921B0460911D046E7F6D7FE8
:102A800060931D046695617081E0682780E00E9474
:102A9000890961E080E00E94B909EEEAF0E0E49182
:102AA000E0930F04EAE9F0E0E491F0E0EE0FFF1F9D
:102AB000EA57FF4F859194919093110480931004ED
:102AC00060E081E00E94B90980911D0481FD04C08D
:102AD00061E081E00E94890981E080930B04EFEAC4
:102AE000F0E0E491E0930C04EBE9F0E0E491F0E035
:102AF000EE0FFF1FE057FF4F8591949190930E04C6
:102B000080930D0463E772E089EF93E00E940E105A
:102B100060E872E083EF93E00E940E106BE872E0D1
:102B20008DEE93E00E940E1060E572E087EE93E078
:102B30000E940E1060E572E081EE93E00E940E109C
:102B40001092DB031092DA031092DD031092DC0383
:102B50001092DF031092DE031092E00360E572E052
:102B600084ED93E0CF910C940E10991B79E004C092
:102B7000991F961708F0961B881F7A95C9F78095BC
:102B8000089597FB072E16F4009407D077FD09D01F
:102B90000E94D51507FC05D03EF4909581959F4F76
:102BA0000895709561957F4F0895AA1BBB1B51E155
:102BB00007C0AA1FBB1FA617B70710F0A61BB70BAD
:102BC000881F991F5A95A9F780959095BC01CD0152
:102BD0000895EE0FFF1F0590F491E02D09945058D1
:102BE000BB27AA270E9407160C94951C0E94871CDD
:102BF00038F00E948E1C20F039F49F3F19F426F41F
:102C00000C94841C0EF4E095E7FB0C947E1CE92FD9
:102C10000E94A61C58F3BA1762077307840795072A
:102C200020F079F4A6F50C94C81C0EF4E0950B2E58
:102C3000BA2FA02D0B01B90190010C01CA01A0010E
:102C40001124FF27591B99F0593F50F4503E68F169
:102C50001A16F040A22F232F342F4427585FF3CFAA
:102C6000469537952795A795F0405395C9F77EF47B
:102C70001F16BA0B620B730B840BBAF09150A1F0C4
:102C8000FF0FBB1F661F771F881FC2F70EC0BA0F4A
:102C9000621F731F841F48F4879577956795B795D2
:102CA000F7959E3F08F0B0CF9395880F08F09927CD
:102CB000EE0F9795879508950E9470160C94951CB9
:102CC0000E948E1C58F00E94871C40F029F45F3F40
:102CD00029F00C947E1C51110C94C91C0C94841C7A
:102CE0000E94A61C68F39923B1F3552391F3951B19
:102CF000550BBB27AA2762177307840738F09F5F1D
:102D00005F4F220F331F441FAA1FA9F335D00E2E89
:102D10003AF0E0E832D091505040E695001CCAF7F6
:102D20002BD0FE2F29D0660F771F881FBB1F2617B9
:102D300037074807AB07B0E809F0BB0B802DBF0190
:102D4000FF2793585F4F3AF09E3F510578F00C945F
:102D50007E1C0C94C91C5F3FE4F3983ED4F3869527
:102D600077956795B795F7959F5FC9F7880F911D80
:102D70009695879597F90895E1E0660F771F881F6C
:102D8000BB1F621773078407BA0720F0621B730B1F
:102D9000840BBA0BEE1F88F7E09508950E94ED1B97
:102DA00008F48FEF0895CF93DF938230910510F4EC
:102DB00082E090E0E0913B04F0913C0420E030E0C0
:102DC000C0E0D0E0309711F1408151814817590798
:102DD000C0F04817590761F482819381209719F058
:102DE0009B838A832BC090933C0480933B0426C032
:102DF0002115310519F04217530718F49A01BE0145
:102E0000DF01EF010280F381E02DDCCF21153105D8
:102E100009F1281B390B2430310590F412968D915D
:102E20009C9113976115710521F0FB0193838283B7
:102E300004C090933C0480933B04FD01329644C04F
:102E4000FD01E20FF31F81939193225031092D93DD
:102E50003C933AC02091390430913A04232B41F439
:102E600020910A0130910B0130933A0420933904E8
:102E700020910801309109012115310541F42DB748
:102E80003EB740910C0150910D01241B350BE09190
:102E90003904F0913A04E217F307A0F42E1B3F0B1C
:102EA0002817390778F0AC014E5F5F4F24173507BC
:102EB00048F04E0F5F1F50933A04409339048193BA
:102EC000919302C0E0E0F0E0CF01DF91CF9108954F
:102ED0000F931F93CF93DF93009709F48CC0FC01ED
:102EE00032971382128200913B0410913C04011529
:102EF000110581F420813181820F931F20913904C3
:102F000030913A042817390779F5F0933A04E093A1
:102F1000390471C0D80140E050E0AE17BF0750F44B
:102F200012962D913C911397AD012115310509F1B0
:102F3000D901F3CF9D01DA0133832283608171814E
:102F4000860F971F8217930769F4EC012881398156
:102F5000260F371F2E5F3F4F318320838A819B814D
:102F600093838283452B29F4F0933C04E0933B0444
:102F700042C01396FC93EE931297ED01499159913B
:102F80009E01240F351FE217F30771F480819181B0
:102F9000840F951F029611969C938E938281938144
:102FA00013969C938E931297E0E0F0E0D80112966E
:102FB0008D919C911397009719F0F8018C01F6CF31
:102FC0008D919C9198012E5F3F4F820F931F20910E
:102FD000390430913A042817390769F4309729F4F5
:102FE00010923C0410923B0402C013821282109390
:102FF0003A0400933904DF91CF911F910F91089506
:10300000A0E0B0E0E6E0F8E10C94051DEC010097CB
:1030100021F4CB010E94D316B8C0FC01E60FF71FC4
:103020009C0122503109E217F30708F4ACC0D90122
:103030000D911C91119706171707B0F00530110577
:1030400008F49FC0C80104978617970708F499C031
:1030500002501109061B170B019311936D937C937A
:10306000CF010E9468178DC05B01A01AB10A4C0104
:10307000800E911EA0913B04B0913C0440E050E0D2
:10308000E12CF12C109709F44AC0A815B905D1F527
:103090006D907C901197630182E0C80ED11CCA1418
:1030A000DB0480F1A3014A195B096A0182E0C80EC2
:1030B000D11C1296BC9012971396AC91B5E0CB162A
:1030C000D10440F0B282A38351834083D9016D9330
:1030D0007C930AC00E5F1F4FC301800F911FF9013F
:1030E00091838083EB2DFA2FE114F10431F0D701A5
:1030F0001396FC93EE93129744C0F0933C04E09334
:103100003B043FC08D919C9111974817590708F4D3
:10311000AC017D0112960D90BC91A02DB3CF809192
:10312000390490913A0488159905E1F44617570738
:10313000C8F48091080190910901009741F48DB77E
:103140009EB740910C0150910D01841B950BE8171F
:10315000F907C8F4F0933A04E0933904F901718354
:1031600060830FC0CB010E94D3167C01009759F0F9
:10317000A801BE010E94CF18CE010E946817C701A6
:1031800004C0CE0102C080E090E0CDB7DEB7EEE033
:103190000C94211D81E090E0F8940C94691DFB01D2
:1031A000DC0102C001900D9241505040D8F70895C3
:1031B000FB01DC0101900D920020E1F70895EF92F0
:1031C0000F931F93CF93DF93E80147FD02C034E0D4
:1031D00001C034E1E42F440FFF0BF7FF03C0F1956A
:1031E000E195F109E32E022F2E2FAE010E943A192C
:1031F000CE01DF91CF911F910F91EF90089545324D
:10320000510520F4423010F00C940A19FB01108291
:10321000CB010895BB274A3031F4992322F4BDE253
:10322000909581959F4F0C9421194532510520F4BA
:10323000423010F00C942019FB011082CB0108954C
:10324000BB27FB015527AA27880F991FAA1FA41780
:1032500010F0A41B83955051B9F7A05DAA3308F074
:10326000A95DA193009779F7B111B1931192CB01A8
:103270000C94A01B4F925F926F927F929F92AF929D
:10328000BF92CF92DF92EF92FF920F931F93CF9353
:10329000DF93CDB7DEB729970FB6F894DEBF0FBE28
:1032A000CDBF6A01122FB02E2BE3201720F0FF2490
:1032B000F394F00E02C0BCE3FB2E0F2D27E0AE010D
:1032C0004F5F5F4F0E94C81AAC018981982F997097
:1032D000913031F0E1FC06C0E0FE06C090E205C08E
:1032E0009DE203C09BE201C090E0EE2DE07183FF00
:1032F0003CC0911102C083E001C084E0811718F442
:10330000212F281B01C020E0E1110BC0F601822F04
:1033100030E2882319F031938150FBCFC20ED11CCB
:1033200020E0992329F0D6019C93F60131966F0194
:10333000C6010396E2FE0AC03EE4D6013C9341E496
:1033400011964C93119712963C9306C03EE6F601F7
:10335000308341E641833283FC01322F40E2332344
:1033600009F442C041933150FACF82FF44C0911119
:1033700002C083E001C084E0811718F4212F281BCC
:1033800001C020E0E1110BC0F601822F30E288235A
:1033900019F031938150FBCFC20ED11C20E099234C
:1033A00029F0D6019C93F60131966F01C601039670
:1033B000E2FE0BC039E4D6013C933EE411963C9307
:1033C000119736E412963C9307C039E6F601308334
:1033D0003EE6318336E63283FC01322F40E233236E
:1033E00019F041933150FBCFFC01E20FF11D108227
:1033F0008EEF9FEFB7C0F1E0911101C0F0E06F2FA9
:1034000070E01416150624F49A012F5F3F4F02C096
:1034100021E030E0260F371FBB2029F06B2D70E034
:103420006F5F7F4F02C060E070E0260F371F612F93
:1034300070E0261737071CF4121B212F01C020E073
:103440003E2D387159F4D601322F60E2332319F042
:103450006D933150FBCFC20ED11C20E0FF2331F021
:10346000D6019C93B6016F5F7F4F6B01E1110BC0DA
:10347000F601922F30E3992319F031939150FBCF4D
:10348000C20ED11C20E09F2D940F3A81782F7071CD
:10349000A72E84FF03C0313309F49150191624F488
:1034A000993018F098E001C091E0E42F852F57FF84
:1034B00002C0E0E080E06E2F782FE0E0F0E0AEE2C6
:1034C0009A2E3A01691A71082A01461A570A0B2DD9
:1034D00010E01195019511096F3F8FEF780729F4DE
:1034E000D6019C92C60101966C014617570784F0DD
:1034F000661677066CF47F01E40CF51CA1E0B0E0E1
:10350000AC0FBD1FEA0EFB1ED7011196BC9002C086
:1035100090E3B92E615071093196C60101967C0184
:103520006017710724F0D601BC926C01D5CF6417E7
:10353000750741F4363320F4353321F4A11002C06D
:1035400081E3B82EF601B082F701822F90E2882342
:1035500019F091938150FBCFF701E20FF11D10821A
:1035600080E090E029960FB6F894DEBF0FBECDBF85
:10357000DF91CF911F910F91FF90EF90DF90CF904F
:10358000BF90AF909F907F906F905F904F90089505
:10359000283008F027E03327DA01990F311D87FD25
:1035A000916000966105710539F432602E5F3D939C
:1035B00030E32A95E1F708959F3F30F08038710598
:1035C000610509F03C5F3C5F3D93913008F08068F5
:1035D000911DDF93CF931F930F93FF92EF92192FBB
:1035E000987F9695E92F96959695E90FFF27E45ECB
:1035F000FE4F99273327EE24FF24A701E70105900A
:103600000894079428F4360FE71EF81E491F511D31
:10361000660F771F881F991F0694A1F705900794DE
:1036200028F4E70EF81E491F561FC11D770F881F8B
:10363000991F661F0694A1F70590079428F4F80EC9
:10364000491F561FC71FD11D880F991F661F771F5F
:103650000694A1F70590079420F4490F561FC71F41
:10366000D81F990F661F771F881F0694A9F78491AA
:103670001095177041F0D695C79557954795F794D3
:10368000E7941A95C1F7E2ECF0E068941590159173
:1036900035916591959105907FE27395E118F10A56
:1036A000430B560BC90BD009C0F7E10CF11E431FA9
:1036B000561FC91FD01D7EF4703311F48A95E6CFD2
:1036C000E894015030F0080F0AF40027021708F4BC
:1036D000202F2395022F7A3328F079E37D932A95C2
:1036E000E9F710C07D932A9589F60694979567951A
:1036F000379517951794E118F10A430B560BC90B30
:10370000D00998F023957E9173957A3308F070E391
:103710007C932013B8F77E9170617D9330F0839590
:1037200071E37D9370E32A95E1F71124EF90FF9008
:103730000F911F91CF91DF91992787FD9095089563
:10374000DC01FC01672F71917723E1F7329704C008
:103750007C916D9370836291AE17BF07C8F3089593
:10376000E89409C097FB3EF490958095709561951B
:103770007F4F8F4F9F4F9923A9F0F92F96E9BB27D1
:103780009395F695879577956795B795F111F8CF4D
:10379000FAF4BB0F11F460FF1BC06F5F7F4F8F4FB8
:1037A0009F4F16C0882311F096E911C0772321F0AE
:1037B0009EE8872F762F05C0662371F096E8862F46
:1037C00070E060E02AF09A95660F771F881FDAF79D
:1037D000880F9695879597F90895990F0008550FCA
:1037E000AA0BE0E8FEEF16161706E807F907C0F087
:1037F00012161306E407F50798F0621B730B840B8F
:10380000950B39F40A2661F0232B242B252B21F468
:1038100008950A2609F4A140A6958FEF811D811D08
:1038200008950E94241C0C94951C0E94871C38F05B
:103830000E948E1C20F0952311F00C947E1C0C9499
:10384000841C11240C94C91C0E94A61C70F3959F23
:10385000C1F3950F50E0551F629FF001729FBB2787
:10386000F00DB11D639FAA27F00DB11DAA1F649F23
:103870006627B00DA11D661F829F2227B00DA11DD6
:10388000621F739FB00DA11D621F839FA00D611D5C
:10389000221F749F3327A00D611D231F849F600D7D
:1038A000211D822F762F6A2F11249F5750409AF0A6
:1038B000F1F088234AF0EE0FFF1FBB1F661F771F32
:1038C000881F91505040A9F79E3F510580F00C94FD
:1038D0007E1C0C94C91C5F3FE4F3983ED4F386959C
:1038E00077956795B795F795E7959F5FC1F7FE2B9D
:1038F000880F911D9695879597F9089597F99F6779
:1039000080E870E060E008959FEF80EC0895002467
:103910000A941616170618060906089500240A9434
:1039200012161306140605060895092E0394000CBA
:1039300011F4882352F0BB0F40F4BF2B11F460FF49
:1039400004C06F5F7F4F8F4F9F4F089557FD905872
:10395000440F551F59F05F3F71F04795880F97FB53
:10396000991F61F09F3F79F087950895121613060D
:103970001406551FF2CF4695F1DF08C0161617063C
:103980001806991FF1CF8695710561050894089571
:10399000E894BB2766277727CB0197F90895052E72
:1039A00097FB1EF400940E94E61C57FD07D00E946E
:1039B000381D07FC03D04EF40C94E61C509540953E
:1039C000309521953F4F4F4F5F4F089590958095CB
:1039D000709561957F4F8F4F9F4F08950E945A1D9C
:1039E000A59F900DB49F900DA49F800D911D112453
:1039F0000895B7FF0C94EE1C0E94EE1C821B930BE3
:103A000008952F923F924F925F926F927F928F9282
:103A10009F92AF92BF92CF92DF92EF92FF920F935D
:103A20001F93CF93DF93CDB7DEB7CA1BDB0B0FB667
:103A3000F894DEBF0FBECDBF09942A883988488824
:103A40005F846E847D848C849B84AA84B984C884BA
:103A5000DF80EE80FD800C811B81AA81B981CE0FB1
:103A6000D11D0FB6F894DEBF0FBECDBFED01089596
:103A7000A1E21A2EAA1BBB1BFD010DC0AA1FBB1F72
:103A8000EE1FFF1FA217B307E407F50720F0A21BE4
:103A9000B30BE40BF50B661F771F881F991F1A9451
:103AA00069F760957095809590959B01AC01BD017B
:103AB000CF010895A29FB001B39FC001A39F700DD5
:103AC000811D1124911DB29F700D811D1124911D26
:103AD000089510E0CFEDD0E004C0FE010E94E9158A
:0C3AE0002196C03ED107C9F7F894FFCF33
:103AEC00F008F0080101010A00003D04800001000B
:103AFC000000000000009E0E77084F0B2D0B410BB1
:103B0C00E50E000000002301770877018F010A0100
:103B1C00220100000000030277084175746F2F002A
:103B2C004163746976652F004F4E004F4646004640
:103B3C00616E3A0057617465723A00526F6F663A63
:103B4C00004175746F004F50454E2048414C460063
:103B5C004F50454E2046554C4C0054656D702053CB
:103B6C00657474696E670046616E20536574746980
:103B7C006E670057617465722053657474696E6763
:103B8C00004C696E6561722053657474696E6700D0
:103B9C0054696D652053657474696E67004469736C
:103BAC00706C617920496E666F0041542B43574D00
:103BBC004F44453D330041542B4357514150004134
:103BCC00542B43574A41503D220041542B43494604
:103BDC0053520041542B43495053544152543D22AB
:103BEC00544350222C2200222C3830007C7C00477D
:103BFC004554202F746573743F706172616D3D0084
:103C0C0020485454502F312E310D0A486F73743A9A
:103C1C00676C617373686F7573652D6868746D6C10
:103C2C002E7268636C6F75642E636F6D0D0A0D0ACE
:103C3C000041542B43495053454E443D003E0053E4
:103C4C00454E44204F4B0041542B434950434C4F5D
:103C5C00534500766F6461666F6E65374635390083
:103C6C003858424541363446535200676C61737381
:103C7C00686F7573652D6868746D6C2E7268636CF3
:083C8C006F75642E636F6D007B
:00000001FF
